:10000000FDC2000034C3000032C3000030C3000052
:100010002EC300002CC300002AC3000028C3000028
:1000200026C3000024C300000C94B4210C949C222D
:100030000C9469211CC300001AC3000018C30000FF
:1000400016C3000014C3000012C3000010C3000058
:100050000EC300000C9490210AC3000008C30000E6
:1000600006C3000004C3000002C3000000C3000078
:10007000FEC20000FCC20000FAC20000F8C200008C
:10008000F6C20000F4C20000F2C20000F0C200009C
:10009000EEC20000ECC20000EAC20000E8C20000AC
:1000A000E6C20000E4C20000E2C2000005010980CF
:1000B000A101850319012AB700150126B700950192
:1000C00075108100C0050C0901A101850419012AE0
:1000D000A002150126A002950175108100C00660DE
:1000E000FF0961A1010962150026FF00952075082E
:1000F00081020963150026FF00952075089102C052
:1001000005010906A101050719E029E715002501E8
:10011000950875018102950175088101050719008F
:1001200029FF150026FF00950675088100050819AE
:1001300001290515002501950575019102950175A7
:10014000039101C009025B00030100A0FA09040049
:1001500000010301010009211101000122440007EF
:1001600005810308000109040100020300000009E1
:10017000211101000122220007058203200001074E
:100180000503032000010904020001030000000927
:100190002111010001223200070584032000011211
:1001A00001000200000008545701C40001010203CD
:1001B000011C037600690061006C003A006600369D
:1001C000003400630032006200330063000000204E
:1001D000036300780074005F0073007400750064AE
:1001E0000069006F0020003100320045003400003B
:1001F00000080343005800540000000403090400F1
:1002000000000000000000000000000000000000EE
:1002100000000000000000000000000000000000DE
:100220000000007E0F00D4FFFFFFC7000000780031
:10023000000000000000002A2B2800000000000041
:100240000000000000000000000029000000002C59
:100250001E3420212224342627252E362D373827F8
:100260001E1F202122232425263333362E37381F04
:100270000405060708090A0B0C0D0E0F10111213C6
:100280001415161718191A1B1C1D2F3130232D3564
:100290000405060708090A0B0C0D0E0F10111213A6
:1002A0001415161718191A1B1C1D2F3130354C291F
:1002B0000044000000AD0000000000BC00BB0000D6
:1002C00000AE00AE00AB00A80000000000427801C4
:1002D0000001000100010001000100010001000116
:1002E0000001000100010001000100010001000106
:1002F00000010001000100010001000100010001F6
:1003000000010001000100010001000100010001E5
:1003100000010001000100010001000100010001D5
:1003200000010001000100010001000100010001C5
:1003300000010001000100010001000100010001B5
:1003400000010001000100010001000100010001A5
:100350000001000100010001000100010001000195
:10036000000100010001000100010001000100A9DD
:1003700000AA004578467849784A7843784478015D
:100380000001000100010001000100010001000165
:100390000001000100010001000100010001000155
:1003A0000001000100010001000100010001000145
:1003B0000001000100010001000100010001000135
:1003C0000001000100010001000100010001000026
:1003D0000101010101010101010202020202020206
:1003E00002020303030303030303040404040404D9
:1003F000040505050505060606060607070707079F
:1004000008080808090909090A0A0A0B0B0B0C0C51
:100410000C0D0D0D0E0E0E0F0F0F101011111112ED
:100420001213131414151516161717181819191A6C
:100430001A1B1B1C1D1D1E1E1F20202122222324CF
:1004400024252626272829292A2B2C2D2D2E2F300E
:10045000313232333435363738393A3B3C3D3E3F22
:10046000404142434445464748494A4C4D4E4F500F
:10047000515354555658595A5B5D5E5F61626465CD
:100480006668696B6C6D6F7072737577787A7B7D57
:100490007E8082838587888A8C8E8F9193959698AB
:1004A0009A9C9EA0A2A3A5A7A9ABADAFB1B3B5B7C7
:1004B000BABCBEC0C2C4C6C9CBCDCFD1D4D6D8DB9E
:1004C000DDDFE2E4E7E9EBEEF0F3F5F8FAFDFFFD3E
:1004D000377A585A000004E6D6B4460200210116C5
:1004E000000000742FE5A3E0023600DF5D003D88C8
:1004F00089C65436C3174FE4DCC3975197BF5126C2
:10050000A33ABACE1FDDDD3280A6C5675FD1CA72BD
:10051000C33E949CE6E2926C784FB4A4682D05E942
:100520007FD65BB34858C8FE9684C30C887AF39292
:10053000C684285F9D22495B5F1C362288D007FC59
:10054000812C2F93097326C645870A3ECA4D11D5C3
:10055000408C4371450B35BACAD0B9008152512342
:1005600021BBF565A5EDC42550FC0DA385EDFBAFC2
:10057000AE3D14E310C34F0702C0AF61E0A3F4DB4C
:10058000E53B7E66789A7EC40AC3956ADE6B6B256E
:10059000E0A5C3A1F5EDEE0E22A779CEB765AA0BB3
:1005A000ACC29CFB33703694EAD484294E87DF6654
:1005B000E9CB5BE255C017637673D71B79EC8800F3
:1005C0002019D2AFA097AA0B3F479047EB000086B7
:1005D0004157FF32458BE70001FB01B7040000489B
:1005E000CACC06B1C467FB020000000004595A00DF
:1005F00000000001000200020001000011241FBEE3
:10060000CFEFDAE0DEBFCDBF04B603FE19C08091A4
:10061000160390911703A0911803B0911903873026
:10062000904BA740B04B61F4109216031092170341
:100630001092180310921903E0E0F8E3099500C046
:1006400012E0A0E0B1E0ECEEF7E402C005900D92FC
:10065000A430B107D9F723E0A4E0B2E001C01D92B5
:10066000A631B207E1F70E94A31A0C94B123C8CCBB
:100670009C0191509F31B8F4832F817034FF0BC0DF
:100680008295807F31FD806232FD806433FD806819
:10069000FB010995089531FD826032FD846033FFCE
:1006A000F7CF8860F5CF80E0F3CF982F92959F70B9
:1006B00061F420E0982F892F8695869511F02E5FA2
:1006C000982F892F8695820F089524E0F4CF809388
:1006D000CB0208958093CC02089521E001C0220F3F
:1006E0008A95EAF78091CC02822BF4CF21E001C0F9
:1006F000220F8A95EAF7822F80959091CC02892368
:10070000E9CFCF93C1E061FDC4E060FDCC0F62FD95
:10071000C29593E0769567959A95E1F79B01220F34
:10072000331F260F371F420F531FFA0140E050E0DE
:1007300090E06191DF019C01042E02C0369527955F
:100740000A94E2F72695220B26272C2326272E93A0
:100750004F5F5F4F4330510561F7CF910895A82F48
:10076000A77023E0969587952A95E1F79C01220FC3
:10077000331F820F931F680F791FFB0140E050E089
:1007800080E0219130E00A2E02C0369527950A9428
:10079000E2F72170042E01C0220F0A94EAF7822B9F
:1007A0004F5F5F4F4330510561F70895282F862F23
:1007B000903F69F0943060F4243048F434E0939F23
:1007C000B0011124620F711D42EC52E09ACF0895DE
:1007D0009C5F9230E0F7622F70E04FEB52E0F6CF73
:1007E000903FA9F0943060F4843088F444E0949F02
:1007F0009001112462EC72E0820F932F911DAFCF14
:100800009C5F923020F46FEB72E090E0F8CF80E0D4
:1008100008959091CC0221E030E0F90101C0EE0F83
:100820008A95EAF7D90101C0AA0F6A95EAF7EA2B7F
:1008300001C0220F4A95EAF7892F8E23E81303C0DF
:10084000892F822B47CF2095822F8923FBCFE091E0
:10085000D4029091D302E91302C080E008959F0171
:1008600057E0E59FF0011124EB52FD4F51815613E3
:1008700006C05081581303C05581541305C02F5F23
:100880003F4FF901E770E7CF81E008958091D402EE
:100890002091D302281301C0089501968770FACFE2
:1008A0009091CE02809589238093CE02282F2770C5
:1008B00081F4891771F09091150392FF0AC0869513
:1008C0008695869513DF1092CE021092CF02109279
:1008D000D00208958095982F8091C9028923809332
:1008E000C90208958091C802811531F01092C802A2
:1008F0001092D1021092D2020895803E9105D1F15A
:10090000C8F48133910509F481C048F48932910516
:1009100009F471C08A32910509F47FC008958933C2
:100920009105E1F082389105C9F08533910509F40C
:100930005DC00895843E9105D1F148F4823E910551
:1009400031F1833E910541F181EE90E00895863EBC
:100950009105C1F1873E9105F1F1089520911403AD
:10096000237009F064C02091150323FF14C089E2AD
:1009700090E008952091140320FD45C030911503A7
:1009800030FF09C024FD24C083EE90E0089520913B
:10099000140322FDF7CF08952091140322FD44C0D3
:1009A0003091150330FD43C024FFF5CF11C02091D5
:1009B000150321FFF0CF8091140384FD09C087EE59
:1009C00090E008952091140323FFE5CF24FFF7CF93
:1009D00080E090E008952091140323FD2BC0309116
:1009E000150331FFE1CF84EE90E0089520911403C8
:1009F00025FFD1CFBCCF2091140325FD1EC020912F
:100A0000150323FFC8CF89E390E0089520911403D4
:100A100026FFC1CF8AE290E008952091140326FFBB
:100A2000BACF81E390E0089582EE90E0089580EEE1
:100A300090E0089586EE90E0089585E390E00895B3
:100A40009091140392FF10C041E0282F24712430AC
:100A500009F040E031E0282F2871283009F030E01B
:100A6000431711F02CE0822793FF10C041E0282F9C
:100A70002471243109F040E031E0282F2871283119
:100A800009F030E0431711F02CE082273091150374
:100A900030FF10C051E0282F2171213009F050E0C3
:100AA00041E0282F2871283009F040E0541711F058
:100AB00029E0822731FF10C041E0282F2171213128
:100AC00009F040E031E0282F2871283109F030E0AA
:100AD000431711F029E0822794FD877E08950F9334
:100AE0001F93CF93DF9309DFEC01D23508F04DC09F
:100AF000D03508F0C3C0C03ED10530F5CD3CD1059E
:100B000008F09AC0C83AD10578F4C53AD10508F082
:100B100090C0C130D10599F1CE010497813A910579
:100B200070F1C0E0D0E02BC0CE01885A91094B97FC
:100B3000C0F7C85AD0E0CC0FDD1FC856DE4F099071
:100B4000D881C02DD4641BC0D03490F4D03208F0CA
:100B5000A8C0C83ED10598F0CE0191509F3108F74A
:100B60008D2F6EDF082F8C2F90E0C7DE902B54C0A6
:100B70008C2F90E0C2DEDF70C82FD92BD06ACE0157
:100B8000DF91CF911F910F910895C03882E5D8076A
:100B9000B8F5C03682E5D80708F056C0C03482E503
:100BA000D807C8F4C03282E5D80708F047C08C2FB8
:100BB0008695869520E2829FC0011124C37021E0B2
:100BC00030E002C0220F331FCA95E2F7E901C82BBB
:100BD000D92BDD68D4CF8C2F86958695877020E23F
:100BE000829FC0011124C37021E030E002C0220FB7
:100BF000331FCA95E2F7E901C82BD92BDC68BFCFB8
:100C0000C03C82E5D80750F48C2F8F71C03AD24592
:100C100080F5982F84EF906AEC01B1CFCE01805C13
:100C20009245809708F07DCFDC2FDF71C0EFD06A4E
:100C3000A6CFA497D064A3CFD065A1CF8C2F8F71FE
:100C4000D82FC1EFD06A9BCF8C2F86958695877061
:100C500020E2829FC0011124C37021E030E002C075
:100C6000220F331FCA95E2F7E901C82BD92BDA68A6
:100C700086CFE6DEC0E0D82FD06281CF8C2F8F7177
:100C8000DFDE93E0CC0FDD1F9A95E1F7DF70282FB0
:100C900084FF04C090E1899F90011124C22FD06984
:100CA0006ECF8D2F8F71CCDE082F8C2F90E025DE3C
:100CB000902BEC01E1CF80E00895F894E82FE295C5
:100CC000EF70F0E041A18F7021E001C0220F8A9502
:100CD000EAF7922F9095942391A392A1822F892BCA
:100CE00082A378940895CF92DF92EF92FF921F93A0
:100CF000CF93DF93462F172FE82FF0E0E153FC4FFF
:100D000071110CC0E4918E2F7E2F6E2FDF91CF9149
:100D10001F91FF90EF90DF90CF900895F491EF2F07
:100D200086E0689FE00111242FEF30E0CE01B90189
:100D30000E94DF22DB01CA01880F991F65E56A9FC7
:100D4000A0016B9F500D1124841B482F440F480FA6
:100D5000C901811B9109F89F7001F99FF00C1124C2
:100D60008F2D149FB0011124672F70E06901C61AFE
:100D7000D70AB601F69F6001F79FD00C1124A3306B
:100D8000B10549F1B901641B7109AB01149FB001B0
:100D9000159F700D1124672F70E0261B370BF29FF3
:100DA000A001F39F500D1124752FCC3FD34050F478
:100DB000A130B105A1F0129709F0A7CFEF2D852F33
:100DC0007F2FA3CFA430B10569F0169709F49DCF0A
:100DD0007F2D8D2D9ACF7D2DEF2D8F2F96CF7F2FAD
:100DE000ED2D93CFE52F7F2DF8CF90915502982BC5
:100DF00090935502089504C108950DC108958091FE
:100E0000990291E08927809399021092050181E06F
:100E1000ECCF80919902837011F4109205018091BA
:100E200099028C7F81608093990208958091990244
:100E3000837011F010920501809199028C7F80934C
:100E40009902089590919902937091F0811589F01B
:100E5000833088F48F73880F880F982F2091990220
:100E60002370922B9093990210920501862FBDCF8B
:100E7000089581E0F0CF82E0EECF809199028695CF
:100E800086958F5F833008F081E061E0DBCF809151
:100E9000990286958695815009F482E061E0D2CF6F
:100EA00090919902937041F080939A0260939B0213
:100EB00040939C02822F99CF0895E9E9F2E0818165
:100EC00090E021E0438162810896EACFE9E9F2E00F
:100ED000818121E0438162818850990BE1CFE9E96A
:100EE000F2E0628120E1620F08F46FEF818121E07E
:100EF000438190E0D5CFE9E9F2E0628120E1621B15
:100F000008F460E0818121E0438190E0C9CFE9E904
:100F1000F2E0438120E1420F08F44FEF818121E0AC
:100F2000628190E0BDCFE9E9F2E0438120E1421B1C
:100F300008F440E0818121E0628190E0B1CF20910E
:100F40009D0230E1230F08F42FEF20939D0281E0F2
:100F50004CCF20919D0230E1231B08F420E0209328
:100F60009D0281E042CFE091B502F091B602309748
:100F700039F00284F385E02D309711F060E2099595
:100F8000089590E06115D1F08C5B9E4FFC0180814B
:100F90008F3F99F0E82FE295EF70F0E041A18F705C
:100FA00021E001C0220F8A95EAF7922F90959423B1
:100FB00091A392A1822F892B82A30895805C9E4FDA
:100FC000E5CF90E06115A9F08C5B9E4FFC0120817C
:100FD0002F3F91F0E22FE295EF70E05EF0E080812C
:100FE00090E02F7002C0959587952A95E2F7817061
:100FF0000895805C9E4FEACF80E00895879A089517
:10100000FC01EE0FFF1FE80FF91FE75DFD4F618345
:10101000408322830895FF920F931F93CF93DF9312
:10102000182F062FF42EC0E0D0E02F2D402F612F77
:10103000CE01E6DF2196CC30D105B9F7CDB7DEB7CA
:10104000E5E00C943C23E091B502F091B6023097B4
:1010500039F00190F081E02D309711F00995089555
:1010600080E00895A3E0B0E0E8E3F8E00C942323E7
:10107000209127023091280228173907B1F0809378
:10108000270290932802E091B502F091B6023097C2
:1010900061F00084F185E02D309739F023E0298359
:1010A0008A839B83CE01019609952396E2E00C94F6
:1010B0003F23A3E0B0E0EFE5F8E00C942323209178
:1010C00025023091260228173907B1F080932502B6
:1010D00090932602E091B502F091B602309761F04C
:1010E0000084F185E02D309739F024E029838A834C
:1010F0009B83CE01019609952396E2E00C943F2351
:101100008091070108952FB7F89480912102909162
:101110002202A0912302B09124022FBF0895909142
:10112000150392FF0EC0982F990F990F990F962BC8
:101130009093CE02D2DAE7DF8093CF029093D00271
:101140000895CBCA9091C802292F282359F0809581
:1011500089238093C80290E08111D5DF8093D1026A
:101160009093D20208952FB7F89460912102709164
:10117000220280912302909124022FBF08950895A6
:101180000895FC01209117023091180226173707A5
:1011900048F06115710529F49091E8009E779093CD
:1011A000E8009B0190E02115310541F4911106C042
:1011B0008091E80082FF32C080E008958091A30210
:1011C0008115C1F18530C1F18091E80083FD30C007
:1011D0008091E80082FDECCF8091E80080FFE3CFB2
:1011E0008091F3004091F200582F2115310519F03C
:1011F0004830510558F091E04830510509F090E031
:101200004091E8004E774093E800CDCF81918093E4
:10121000F100215031094F5F5F4FE7CF8091A3026A
:10122000811541F0853041F08091E80083FFC0CF07
:1012300081E0089582E0089583E00895982F9093C7
:10124000E900891771F07091EC002091ED00509148
:10125000F00021FD09C09F5F973089F78093E90076
:101260000895762F242F50E03091EB003E7F30938D
:10127000EB003091ED003D7F3093ED003091EB00BD
:1012800031603093EB007093EC002093ED005093AD
:10129000F0002091EE0027FDDECF0895809111022D
:1012A00087FF13C08091E80082FF06C08091E800AC
:1012B0008B778093E80008958091A3028111F2CF8B
:1012C00008958091A3028115D9F38091E80080FFF1
:1012D000F8CF8091E8008E77ECCF2091E400309138
:1012E000E50095E6A9012091EC00822F817020FF96
:1012F00006C08091E80080FF06C080E0089520913C
:10130000E80022FD1AC08091A302811589F0853082
:1013100089F08091EB0085FD0FC02091E4003091B1
:10132000E50042175307F9F29150E1F684E0089581
:1013300082E0089583E0089581E00895CF93DF93DC
:10134000C8EDD0E088818F7E8883E7EDF0E0808172
:101350008160808384E082BF81E080931002888175
:101360008E7F8883E2EE10821092DA00A1EEB0E068
:101370001C9288818F7788838881806888838881A0
:101380008F7D888319BC1092A30210920F021092D5
:10139000570210920E02A0EE8C918B7F8C93888165
:1013A0008160888342E060E080E048DFA1EEB0E049
:1013B0008C918E7F8C93E2EEF0E08081816080835F
:1013C000808188608083E0EE80818E7F8083888149
:1013D00080618883DF91CF910895E8EDF0E080810E
:1013E0008E7F80831092E2001092DA001092E1006A
:1013F000A0EEB0E08C9181608C9380818F778083A8
:1014000019BCA7ED8C918E7F8C9380818F7E808319
:1014100010921002089531B33F7721B320684FB77F
:10142000F89489E292E0FC010196508168E021BBCA
:10143000000000C057FF31BB550F000000C000C0C6
:1014400000C031BB00C06A9591F752E08D3495071A
:1014500051F74FBF8FE594E00197F1F700C000000E
:10146000089581E08093E00080E28093D80010929C
:10147000C9008FE19EE40197F1F700C00000A7E0EA
:10148000B0EBCD018093160390931703A09318033C
:10149000B093190388E19CE00FB6F894A895809367
:1014A00060000FBE90936000FFCF0F931F93CF9308
:1014B000DF93EB018A019091A302943059F5809358
:1014C000E9008FEF9091E80095FD06C095ED9A95A3
:1014D000F1F700008150B1F78091E80085FF1AC054
:1014E000FCDE811112C08091E80085FD06C080916C
:1014F000E8008E778093E800F3CF88818093F10035
:101500000150104011F02196EECF8091E8008E77C7
:101510008093E800DF91CF911F910F910895603281
:1015200029F440E250E0BC0182E0BFCF0895CF93A0
:10153000DF93EC0148E050E0BC0181E0B6DF88E0D9
:10154000FE01A9E1B2E001900D928A95E1F7DF91E9
:10155000CF91089543E050E0BC0184E0A6CF909184
:10156000150392FB222720F9281771F080FB92F9CE
:1015700090931503609114037091150384E090E03B
:101580000E94AD2382E08CC908951F93CF93DF930F
:10159000122F8630E0F4962F942B9430C0F498E00C
:1015A000699FE0011124C40FD11DC40FD11D20E299
:1015B000829FC0011124C80FD91F632FCE018996C5
:1015C0000E949323612FCE018A960E949323DF917C
:1015D000CF911F9108950F931F93CF93DF93142FF3
:1015E000022F863020F5643010F590E1899FE001EC
:1015F000112424E0629FB0011124C60FD71FC751E8
:10160000DF4F81E08427632F9E01280F311D280FB3
:10161000311DC9010E94932381E090E0111102C0A5
:1016200083E090E0602F8C0F9D1F0E949323DF9139
:10163000CF911F910F9108958F929F92BF92CF9259
:10164000DF92EF92FF920F931F93CF93DF93C0909F
:10165000A102D090A20281E08093A1021092A20286
:10166000E12CF12CC0E04701D0E013C0F801259136
:1016700035914B2D6D2F8C2F88DF0E5F1F4FB3944C
:101680008B2D843099F784E0880E911CDF5FD43075
:1016900039F08401000F111F01551D4FB12CE6CF09
:1016A000870101591C4FD0E0F8012591359141E0A7
:1016B0006D2F8C2F90DFF80132962591359140E007
:1016C0006D2F8C2F88DF0C5F1F4FDF5FD43061F7E9
:1016D000CF5F80E1E80EF11CC63009F0C4CFC092A4
:1016E000A102D092A202DF91CF911F910F91FF90A2
:1016F000EF90DF90CF90BF909F908F900895CF9301
:10170000C091C9028091CD02C82B8091C802811579
:10171000E1F0F9DC2091D1023091D202821B930BCF
:101720008838934108F0DED88091C802C82B20E0A9
:1017300088E092E0FC013081019631112F5F32E0A8
:101740008E309307B9F72111CDD8C093060248E037
:1017500050E067EB72E086E092E00E945323892B11
:10176000B9F088E0E6E0F2E0A7EBB2E001900D927C
:101770008A95E1F7E091B502F091B602309741F019
:101780000280F381E02D309719F086E092E0099510
:10179000CF9108951092C902E8E0F2E086E011923C
:1017A0008A95E9F780E090E05DDC80E090E081DC04
:1017B0001092CD02A4CFEEDF8FEF94E32CE08150A6
:1017C00090402040E1F700C0000088E19CE00FB6A7
:1017D000F894A895809360000FBE90936000FFCFAF
:1017E000AAE2B0E0E6EFFBE00C94222381E192E074
:1017F000FC0101962091F100208322E089319207BB
:10180000B9F780911202893009F457C0C8F48230C8
:1018100009F4B3C0833009F483C0813081F1809131
:10182000E80083FFE7C080911102909112029A3084
:1018300008F0E0C0E92FF0E0ED54FC4D0C940623D5
:101840008A3009F48AC08B3051F7809111028132BD
:1018500031F78091150290911602892B01F7809142
:10186000E800877F8093E80019DD81E09091130202
:10187000911101C080E0809308018CDFD0CF80916E
:101880001102813A61F68091E800877F8093E80039
:101890008091150290911602892B59F060E080E04A
:1018A00090E070E06EDC8091E8008B778093E80038
:1018B000B6CF68E089E192E0F4CF809111028132E5
:1018C00009F0ADCF80911502909116028D7F892B82
:1018D00009F0A5CF8091E800877F8093E800809190
:1018E000E80082FF18C02091F3008091F200922F4F
:1018F000029731F48091F100813011F0863021F4AB
:101900008091F100809307018091E8008B778093AC
:10191000E800C4DC84CF8091A3028111E0CF7FCFA7
:1019200080911102813A09F07ACF8091150290914D
:101930001602892B09F073CF8091E800877F80938E
:10194000E8008091E80080FFFCCF8091080180933F
:10195000F1008091E8008E77DACF80911102813218
:1019600009F05DCF8091E800877F8093E80096DCE6
:10197000809114028093060152CF80911102813A26
:1019800009F04DCF8091E800877F8093E800809137
:10199000E80080FFFCCF80910601D9CF803889F024
:1019A000823841F5809115028F70873018F5809349
:1019B000E9008091EB0085FB882780F91092E9000F
:1019C00006C080915702880F90910E02892B90914A
:1019D000E800977F9093E8008093F1001092F10067
:1019E0008091E8008E7723C0811116C08091130288
:1019F000813009F18091E80083FF0AC08091E800FE
:101A0000877F8093E8008091EB0080628093EB00F9
:101A1000AA96E3E00C943E23823061F78091130292
:101A2000811579F01092E9008091E800877F80931A
:101A3000E80034DCDFCF933009F080E08093570278
:101A4000F1CF809115028F70282F2150263090F60B
:101A50008093E9002091EB0020FFE4CF933031F434
:101A60008091EB0080628093EB00DCCF9091EB00E3
:101A700090619093EB0021E001C0220F8A95EAF774
:101A80002093EA001092EA008091EB008860EBCF8F
:101A90008111B0CF809113028F77182F8091E300CE
:101AA0008078812B8093E3008091E800877F80938A
:101AB000E800F4DB8091E80080FFFCCF8091E30038
:101AC00080688093E30083E0111101C082E080937D
:101AD000A30290CF8058823008F08CCF80911302FF
:101AE000909114028C3D23E0920789F583E08A836C
:101AF0008AE289834FB7F894DE01139620E03EE036
:101B000051E2E32FF0E050935700849120FF03C08F
:101B100082958F703F5F8F708A30B8F0895C8D93AB
:101B20001D922F5F243169F74FBF8091E800877FB6
:101B30008093E8006AE270E0CE01019622DB80919A
:101B4000E8008B778093E80055CF805DE8CF292FA0
:101B500030E02330310509F44EC078F521303105ED
:101B600009F486C08BE590E0E4E4F1E02230310531
:101B700009F040CF2091E800277F2093E8002091D2
:101B80001702309118028217930708F49C0140E075
:101B90002115310509F071C041116FC08091E80035
:101BA00082FDCDCF8091A302811549F2853039F2B3
:101BB0008091E80083FFF2CFC2CF8091150290910F
:101BC00016022132310509F444C02232310509F0F0
:101BD00011CF8330910508F00DCFFC01EE0FFF1FF0
:101BE000EC5CFE4F0190F081E02D8F5C9E4FDC019C
:101BF0008C9190E010C0282F30E0823011F123301A
:101C0000310568F4232BA9F4EBEFF1E0E4918E2F7A
:101C100090E0EBEFF1E0009709F4ECCEABCF09F0E8
:101C2000E9CEE1EBF1E0E4918E2F90E0E1EBF1E021
:101C3000F2CFE1EFF1E0E4918E2F90E0E1EFF1E0FF
:101C4000EACFEFECF1E0E4918E2F90E0EFECF1E0E1
:101C5000E2CF8330910508F0CDCE880F991FFC01AB
:101C6000E65CFE4F0190F081E02D89E090E082CFAC
:101C700082E190E0EFE9F1E07DCF8091A302811550
:101C800009F45DCF853009F45ACF8091E80083FDD7
:101C900056CF8091E80082FD81CF8091E80080FFDF
:101CA00077CF4091F3008091F200942F21153105F8
:101CB00019F08830910550F041E0089709F040E0B4
:101CC0008091E8008E778093E80062CF4491409342
:101CD000F1003196215031090196E8CF803809F0A2
:101CE00089CE8091E800877F8093E80080910F0281
:101CF0008093F10075CE81117DCE80911302182F53
:101D0000823008F077CE8091E800877F8093E800EA
:101D100010930F02C3DA1115D9F084E08093A30267
:101D200042E061EC81E08ADA42E261EC84E086DA4A
:101D300042E261EC82E082DA42E260EC83E07EDA49
:101D40008091A302843051F482E08093090152CE45
:101D50008091E30087FDE1CF81E0E0CF81E0F5CF26
:101D60000F931F93CF93C82F811539F18450813A77
:101D7000A8F508E012E0F8018081C81711F131964A
:101D800082E0EE30F807C1F7EFEF80E0D8019C91D8
:101D9000C91791F00F5F1F4FEF3F19F4911101C068
:101DA000E82F8F5F863091F7EF3F31F0FE2FFF0F66
:101DB000FF0BEA5FFD4FC283A2DCCF911F910F9111
:101DC0000895E8E0F2E08191C81302C0DF011E929D
:101DD00082E0EE30F807B9F792DCD6CF8C2F805E28
:101DE000883060F4C77081E001C0880FCA95EAF7B7
:101DF000C091C902C82BC093C902DECF8C2F855A6F
:101E0000833028F48C2F8452990B2CD9D6CFC85A02
:101E1000CB3198F6EC2FF0E0EE0FFF1FE253FE4FB0
:101E20008081918146D9C9CF811561F1982F945055
:101E3000913A60F4E8E0F2E09191891302C0DF0189
:101E40001E9292E0EE30F907B9F759CC982F905EC8
:101E5000983058F4982F81E091FD84E090FD880F30
:101E600092FD82950E946A04F0CF982F955A933084
:101E700018F480E090E0F6C8885A8B3118F480E0BE
:101E800090E017C908951F93CF93DF93182FEB01AC
:101E900067DF209731F4812FC7DFDF91CF911F914A
:101EA00008958FE99FE00197F1F700C000002197A6
:101EB000F0CF811531F09091C902982B9093C9020F
:101EC0001ECC0895811519F00E946A0418CC08955B
:101ED000811531F09091CD02982B9093CD020FCCCB
:101EE0000895811539F080959091CD0289238093D2
:101EF000CD0205CC0895A4E0B0E0E1E8FFE00C9449
:101F00001C23FE013196DF0184E01D928A95E9F7DA
:101F100080E9E82E81E0F82E04E911E0DD24D39475
:101F2000BE2ECF2EF70181917F018F3F09F445C06E
:101F3000F894E82FE295EF70F0E021A18F7041E076
:101F400001C0440F8A95EAF7922F942B91A392A196
:101F5000842F8095892382A3789400C064E971E07E
:101F6000EB2DFC2D4D2D4095DB019D91BD01819107
:101F70009F3F09F449C0292F22952F70205E30E041
:101F8000D9012C919F7002C0359527959A95E2F75B
:101F900020FD3AC08D299F0121503109D9018C9330
:101FA00081E06839780701F7F70182918F3F11F0DE
:101FB0000E945D0680EA8A95F1F7DD0C0E151F057B
:101FC00009F0B0CF44E050E06B2D7C2D8BEA92E01D
:101FD0000E945323892BD1F089819A81AB81BC81E6
:101FE0008093AB029093AC02A093AD02B093AE028B
:101FF00081E08093A60287D88093A4029093A502E3
:102000002496E9E00C9438238423C5CF8091A6025E
:102010008115B1F30091A4021091A50274D8801B20
:10202000910B059768F344E050E06BEA72E087EAB1
:1020300092E00E945323892B81F08091AB02909112
:10204000AC02A091AD02B091AE028093A702909332
:10205000A802A093A902B093AA021092A602D0CF20
:102060000F931F93CF93DF93863008F5962F942B11
:102070009430E8F498E0699FE0011124C40FD11D69
:10208000C40FD11D20E2829FC0011124C80FD91FA7
:10209000CE0189960E947723082FCE018A960E944E
:1020A0007723902FDF91CF911F910F91089580E0BA
:1020B00090E0F8CFFF920F931F93CF93DF93F42E0E
:1020C000863048F5643038F590E1899FE0011124AD
:1020D00084E0689FB0011124C60FD71FC751DF4F9E
:1020E00081E084279E01280F311D280F311DC90171
:1020F0000E947723082F81E090E0F11002C083E076
:1021000090E08C0F9D1F0E947723902FCDB7DEB7F4
:10211000E5E00C943C2380E090E0F8CF2091B10200
:102120003091B202232BC9F4703F39F4603FA9F417
:102130008091AF029091B0020895743038F4643009
:1021400060F4863050F4462F672F8ACF7D3F41F4EC
:10215000643018F441E0863050F080E090E008955B
:102160007C3FD9F76430C8F78630B8F740E0A2CF9B
:10217000CF92DF92FF920F931F93CF93DF936C0167
:102180000091CC028091CB02082BC5E0D0E010E09A
:10219000C8010C2E02C0959587950A94E2F780FD40
:1021A0000CC02197A8F7F12C8F2DDF91CF911F91B3
:1021B0000F91FF90DF90CF900895FC2EB6018C2FE9
:1021C000ADDF0E946F05019761F3EECF1F93CF93B0
:1021D000DF93FC012581C081D181CE01211579F0E9
:1021E000611569F0C5DF182F682FCE010E94D60354
:1021F000BE01812F93DFDF91CF911F9108950E943F
:10220000F003182FF5CFCF93DF93EC01B1DFBE01C0
:1022100085DF0E946F05DF91CF910895FC01248135
:10222000211599F080819181EEDF282F92959F7082
:10223000963099F060F4925F9F70923030F4203FB6
:10224000B1F038F481E0283E38F080E008959A5FDC
:10225000F3CF81E0243FC9F7089591E0213F09F0D1
:1022600090E081E0283E08F080E0892B089581E02D
:102270000895673B22E072078105910528F4CB01A0
:10228000875B9E4F0C94772380E0089585E290E071
:102290000E947723803469F486E290E00E947723DD
:1022A000813239F487E290E00E94772391E0833213
:1022B00009F090E0892F81700895A0E0B0E0E3E696
:1022C000F1E10C941C23EC019881913000F109F0AC
:1022D00044C08981813051F48A81239660E570E0A1
:1022E000893311F060E070E0CEDDEECF823021F472
:1022F0008A81239635DDE8CF833021F48A812396C5
:1023000093DDE2CF843041F022968111DDCFCDB74D
:10231000DEB7E9E00C9438238A81239620E030E090
:102320009AE0482F4053550B4A30510560F0211573
:10233000310559F3EFE9FFE03197F1F700C00000F4
:1023400021503109F4CF929FB001939F700D112459
:102350009A01260F371F8991E4CF2196E92FF0E0EB
:10236000E15DFD4F8491B82E292F2695269526955F
:1023700030E0F901E15EFD4FE4909770F12C092EF9
:1023800002C0F594E7940A94E2F7F901E15FFD4F8A
:10239000C490D12C092E02C0D594C7940A94E2F7B8
:1023A00021503E4FF901049110E002C015950795A8
:1023B0009A95E2F7E0FE02C081EED2DCC0FE02C0D8
:1023C00086EECEDC60E070E08B2D5DDDC0FE02C0ED
:1023D00086EE2ADDE0FE02C081EE26DD00FF74CF2E
:1023E00060E070E08CE280CF4F925F926F927F92BC
:1023F0008F929F92AF92BF92DF92EF92FF920F93D4
:102400001F93CF93DF9300D000D0CDB7DEB77C0110
:10241000FC018481811551F161E0C701D7DEF7012C
:102420003581311509F413C1AC01575740385105B6
:1024300008F0E3C0182F863050F466EB72E080E0BD
:1024400090E017DFA12CB12C45018115A9F18091F5
:10245000CE02877059F0F7018581811539F080919E
:10246000150382FF03C082E00E9450040F900F907A
:102470000F900F90DF91CF911F910F91FF90EF90F0
:10248000DF90BF90AF909F908F907F906F905F9004
:102490004F90089587EB881682E09806A104B10456
:1024A000B1F2B401C501E5DE9FEF891A990AA90AC4
:1024B000B90A8111EFCF11501111ECCF8E010F5FCE
:1024C0001F4FF80184E011928A95E9F7B401C50124
:1024D000D0DE8983811509F4BACF240135019FEF3D
:1024E000491A590A690A790A8130E9F4B201C3012B
:1024F000C0DED82E8A83811509F4A9CFB401C501A5
:102500006E5F7F4F8F4F9F4F2D2D2150233070F4E2
:1025100023E0820E911CA11CB11C24013501A9DE0F
:102520008B838115A1F1C801C8DE31C02D2D255046
:10253000233080F52401350123E0420E511C611C3B
:10254000711C97DE8B83811511F184E0880E911C3C
:10255000A11CB11CB201C3018CDE8C838115A9F0D2
:102560006B807C8081E068168FEF780610F0762C07
:10257000612C8D2D863039F0873011F0C301C1D523
:10258000C301EFD502C0C301BCD52401350142010E
:10259000530197CF2D2D2B013C012430C1F769DE6B
:1025A000D82E811509F453CFB401C5016D5F7F4F5B
:1025B0008F4F9F4F5EDE811509F449CF94E0890E5D
:1025C000911CA11CB11C24013501282F2150330B73
:1025D0004FEF429FC001439F900D11242D2D21509C
:1025E000330B820F931F009791F20197EFE9FFE001
:1025F0003197F1F700C00000F6CF2091C902227296
:10260000FC01E052F847EB30F10508F01EC3E3543B
:10261000FC4D0C9406230E94FF0619CF211579F179
:102620000E94470714CF211579F10E9466070FCF4A
:10263000211579F10E947B070ACF211579F10E94BB
:10264000930705CF211579F10E94A90700CF2091AA
:10265000C9022272FC01E054F847ED30F10530F573
:10266000E853FC4D0C9406230E94090781E00E9468
:10267000F506EDCE0E941607F9CF211589F20E94CA
:102680003D07E5CE211589F20E945D07E0CE2115B8
:1026900089F20E946F07DBCE211589F20E9487071D
:1026A000D6CE211589F20E949F07D1CE87372CE71D
:1026B0009207D9F088372CE79207D9F0AC01405E39
:1026C000524540325105C8F431112EC08F7101E0DE
:1026D00001C0000F8A95EAF7602F83E090E00E9426
:1026E0009323802F0E946703B2CE81E00E9476037D
:1026F000B4C282E03115D1F3AEC23115A9F08A35EA
:102700002CE7920709F498C008F070C081302CE7DC
:10271000920709F48FC083302CE7920709F484C034
:1027200081159C4709F473C0F701858100811181EF
:10273000811509F485C0C8011BDDD82E682FC8019A
:102740000E94D603B8018D2DE9DC0E946F05182F79
:10275000992EF701B580A680A2948FE0A8228091DF
:10276000CE02877001F1DB2CB114F1F0892F807F4C
:10277000803461F0812F805E8830A8F0892F807EC0
:10278000803221F4123078F0A11469F080911503A1
:1027900082FF09C082E00E9450048091CE028770BF
:1027A000DD24D3948111D12C892D82958F708830AE
:1027B00009F44AC108F063C0843008F046C0823092
:1027C00008F46EC0092D0F70892D807F803211F0C2
:1027D0000295007F113008F49BC009F4FCC0B114CD
:1027E00009F406C1A11409F4AFC072C08B352CE7FF
:1027F000920721F18C359C4709F096CF8091150303
:10280000002482FF0394802D0E94AF0A8DCF0E9486
:10281000CA0B8FEF94E32CE0815090402040E1F709
:1028200000C000000E94310A6FEF7FEF80E090E06F
:102830000E94AD230E94DB0B81E0E6CF80E0E4CF75
:10284000C8010E94F003D82E7DCF09F4E1C0D11455
:1028500009F429C18091CE0280FD25C1F7011582BE
:102860008695869586950E946D03C701BDDD809192
:10287000CE028695869586950E94760314C189308E
:1028800009F45BC18A5F8F70823008F7123F09F04C
:1028900064C1892D8F71B1105DC10E946D0301C1AA
:1028A000092D0F70892D803110F00295007FB11431
:1028B000B9F0011569F0812F805E883010F0111198
:1028C00009C08091C902802B8093C9020E947F0BAE
:1028D000812F2EC08091CD02802B8093CD02F6CF28
:1028E000812FA2DA011509F4B2CF812F805E8830E2
:1028F00010F0111104C0802F0E946A0406C00095D8
:102900008091CD0280238093CD020E947F0B9FCFC8
:102910008091150382FD14C0B11461F0011539F0E6
:102920008091C902802B8093C9020E947F0B80E0B6
:1029300017DA8DCF80E078DA011509F488CFDBCF84
:10294000B11469F1A11003C0802FB3DA80CF8A2DB2
:10295000813091F48091C802182F8023081709F460
:1029600076CF0E9483088093D1029093D202812F68
:10297000802B8093C8026BCF853009F068CF802F01
:1029800098DA802F0E94A2088091CA02902F982383
:10299000091709F45CCF802B8093CA0258CFA1108D
:1029A00010C0802F8FDA802F0E94A2088091CA0267
:1029B000902F982309F44BCF009508230093CA0267
:1029C00046CF8A2D813009F042CF8091C902802301
:1029D00009F43DCFE6CF8A2DB11421F0863008F0FE
:1029E00036CFB2CF853008F032CF802F6BDA2FCFC1
:1029F000A114D9F3193349F48FEF97EE23E08150F6
:102A000090402040E1F700C00000812F0DDA1FCF79
:102A1000892D869586958370813060F009F017CFF7
:102A2000812F992D9370B11002C080E090E00E9438
:102A300059080DCF812F992D9370B11002C080E0FD
:102A400090E00E94320803CF892D8370D9F5B11030
:102A500028C0812F829586958770880F880F412F17
:102A60004F70082E01C0440F0A94EAF7212F2071FD
:102A700014FF06C02FE001C0220F8A95EAF72095C7
:102A8000892D869586958370982F823099F08330B2
:102A9000B1F08091CB02913051F0242B82230E941F
:102AA00067030E94230860E0C70190DBDFCC842B22
:102AB000822BF5CF242B8091CB028227F0CF822F5F
:102AC000842BEDCFB11459F190FEEBCF812F82957D
:102AD00086958770880F880F412F4F70082E01C090
:102AE000440F0A94EAF7212F207114FF06C02FE04B
:102AF00001C0220F8A95EAF72095892D8695869543
:102B00008370982F823089F08330A1F08091CC02BD
:102B1000913041F0242B82230E946A03C2CF82307D
:102B2000A8F6BFCF842B822BF7CF242B8091CC0229
:102B30008227F2CF822F842BEFCF892D8F70082F21
:102B4000B11429F00E946D03812FB3D9AACF812F30
:102B5000B9D9802F0E947603A4CF68F4103FC1F04A
:102B6000113F89F0B11409F460C0A11409F45AC0EE
:102B7000812FF6D896CF133FF9F0143F99F7809143
:102B8000150382FD26C0892D8F71B11419F385CEEE
:102B90008A2DB11479F0853008F083CF892D8F719B
:102BA000282F81E001C0880F2A95EAF79091CC0286
:102BB0008927B2CF8630F0CF80E0B11409F4ACCFD2
:102BC000892D8F71982F81E001C0880F9A95EAF7BF
:102BD000A3CFB114C1F08091CE028770843049F444
:102BE0001092CE021092CF021092D002892D8F71D6
:102BF000B1CF8A2D63E0853008F053CF892D8F71D6
:102C00000E948F084ECF8A2D853040F01092CE0260
:102C10001092CF021092D00264E0F0CF81E00E94C7
:102C200050043FCF892D8F7138CEA114F9F219339A
:102C300049F48FEF97EE23E0815090402040E1F778
:102C400000C00000812FF0D82CCF87372CE79207E7
:102C500009F030CD81E00E946D0343E062E081E045
:102C60000E940904F4CB80911303803170F48091A9
:102C70001203811551F0E091D4022091D3023091DA
:102C80000E0340910D032E1301C00895BF0187E08C
:102C9000E89FF0011124DF01AB52BD4F14968C91D7
:102CA0001497811551F111968C911197831325C0BA
:102CB0008C91841322C015968C91159781111DC09B
:102CC00012968D919D91A0910F03B09110038A1BD4
:102CD0009B0B883C910588F4809113038F70806171
:102CE00080931303E552FD4F80818F708061808354
:102CF0008DE093E079DB0C9446046F5F7F4FFB011E
:102D0000E770C1CFADE0B0E0E8E8F6E10C9418233D
:102D10008C0186E0F801DE01189601900D928A95EB
:102D2000E1F7F801F58084819DE0892E93E0992EEA
:102D300070901103711016C0811589F0F11409F417
:102D40000AC1C8016BDA811509F405C187E0F801F1
:102D5000ADE0B3E001900D928A95E1F784DFFF24A6
:102D6000F39454C0D080A280B380C090120320910D
:102D70000F0330911003A501421B530BC11409F43A
:102D8000BBC0483C510508F075C0811541F38091E6
:102D90000E039180E09013039E2D903108F056C0F1
:102DA000981214C080910D038D1110C0F11048C00D
:102DB0008E2D8F708061809313038DE093E014DB80
:102DC00080911303F8018683F12C20C0F11038C0E4
:102DD00040E0692D8D2D0E94270440E0692D8D2D46
:102DE0000E942704F82E8111EFCF888599850BDA90
:102DF000292F22952F70903470F49F70223098F014
:102E00009115A9F0F8019681903188F48F2D2D96B7
:102E1000EDE00C9434232A5F2F70223060F0C8015B
:102E2000E3DAFC2CF3CF911511F0811579F3805E74
:102E3000883060F3F4CF803F48F3815F8330F9CF6F
:102E400080911303816080931303BECF981237C023
:102E500080910D038D1133C0F11031C0E682C8019D
:102E6000C3DA87E0F801ADE0B3E001900D928A95F6
:102E7000E1F775CFE09013039E2D903148F48DE07B
:102E800093E0B2DAF40187E011928A95E9F79CCFDA
:102E9000811509F464CF90910E03818198130FC0BE
:102EA00080910D038D110BC0F11009C0E682C8019D
:102EB0009BDAF40187E011928A95E9F750CFC801B7
:102EC000ADD9811509F447C0F11409F444C08E2D21
:102ED000803208F43BCF80910D0390910E038983DB
:102EE0009A83AB82BC827D821E82809113038F8382
:102EF000CE01019679DA2ACF483C510508F0C2CFBD
:102F0000811509F42CCFF11431F190910E038181D8
:102F1000981318C080910D038D1114C08091130374
:102F200080FD9FCF803108F49CCF8683807F803FD7
:102F300009F495CF8681982F907F905F8F70892BB1
:102F400086838DCFC8016AD9811100CF8091130388
:102F5000816080931303C80147DA01CFABE1B0E091
:102F6000E4EBF7E10C9421234E8B5F8B688F798F14
:102F70008A8F192F9B8F91111092CD021D8A86E0A6
:102F8000FE017696DE011F9601900D928A95E1F77B
:102F90000A8D8091150382FF1FC00E948308209133
:102FA000CF023091D002821B930B8838934138F0C6
:102FB0008091CE0282FD03C082E00E9450040E94F4
:102FC00083082091D1023091D202821B930B883862
:102FD000934110F00E947204011551F00B8B1C8B71
:102FE00061E0CE010F96F2D861E0CE010F96EED8E7
:102FF0000B8B1C8B87E0FE013F96DE01189601903B
:103000000D928A95E1F7CE0108967CDE811128C0E9
:103010002091D3023091D40287E0AE01485F5F4F28
:10302000FA0147505109DA0101900D928A95E1F7B2
:103030008C858115A9F0822F90E08395877090E0B0
:10304000AC0134171506B1F40E94CA0B1092D302DA
:103050001092D402EDE0F3E087E011928A95E9F74F
:103060008091D4029091D302891317C06B96E4E04B
:103070000C943D2397E0929FD0011124AB52BD4F99
:103080009E012F5F3F4FF90101900D929A95E1F754
:103090004093D3020E944604E3CF27E0829FC00101
:1030A00011248B529D4F2EDE811501F38091D402A5
:1030B0009091D502019687708093D402D1CFA6E07B
:1030C000B0E0E5E6F8E10C9421230E9483088C012E
:1030D0008091B3029091B4028017910771F0198228
:1030E0001A820E948308BC0149815A8180E090E0E5
:1030F00035DF0093B3021093B4022696E4E00C94FB
:103100003D23A6E0B0E0E7E8F8E10C9421238C0130
:103110008093AF021093B0021032B0F4C801805E09
:103120009109089728F068E67FE00115110511F470
:1031300069E57FE0C8010E943803802F0E94B00E2D
:103140002696E4E00C943D2380EF89838A830E94D5
:1031500083088160BC0149815A8181E091E0FEDEF3
:10316000EFCFA6E0B0E0E7EBF8E10C9421238C016F
:103170008093AF021093B0021032B0F4802F0E94FF
:10318000140FC801805E9109089728F061E77FE07D
:103190000115110511F462E67FE0C8010E943803B1
:1031A0002696E4E00C943D2380EF89838A830E9475
:1031B00083088160BC0149815A8181E090E0CEDEC4
:1031C000EFCF48E050E067E170E089E992E00E94CB
:1031D000842310925502089585E08093990280918E
:1031E000160190911701A091180180939A02909373
:1031F0009B02A0939C028FE780939D028FEF8093A8
:103200009E02DFCFA0E0B0E0E8E0F9E10C941D23DE
:103210000E94B308AB01BC0140934D0250934E0293
:1032200080934F027093500280919902182F13706F
:1032300019F0182F1695169590910501923009F402
:10324000FCC080F4911116C010920001409351020D
:1032500050935202609353027093540281E0809322
:10326000050103C0933009F4F1C0CDB7DEB7E8E043
:103270000C9439239091040119132AC08370209172
:10328000030130E091E08217130609F490E0909377
:10329000020180919E0290910101981739F080936C
:1032A000010140E060E080E00E94FD06113091F0F5
:1032B000123009F481C0111109C0809102018115F9
:1032C00029F040E060E080E00E94FD0680E020C040
:1032D00091E0DDCF80910001C82FCC0FC80F0C2FDB
:1032E0000D5FF02E0D3010F02CE0F22E60919A025E
:1032F00070919B0280919C020E947306E62ED72E4D
:10330000C82ED0E0CF1508F447C081E00C30F0F6AD
:1033100090910001292F2F5F2093000181117BC024
:1033200082E08093050180910201811174C0111522
:1033300009F48AC0C92FCC0FC90F1C2F1D5F1D3087
:1033400008F01CE09091CB028091CC02892B0E9466
:103350005503833009F467C008F051C0813009F487
:103360005DC06091190170911A01823009F450C05A
:1033700060E070E080E00E947306062FF72EE82ED2
:10338000D0E0C11708F071CF2E2D4F2D602FCE0148
:103390000E94FB062196F5CFFE01E45AFE4F80A560
:1033A00090910101892331F02C2D4D2D6E2DCE01F0
:1033B0000E94FB062196A6CF80910001C82FCC0F5A
:1033C000C80F0C2F0D5FF02E0D3010F09CE0F92E81
:1033D000D0E0CF1508F099CFFE01EE0FFF1FEC0FE4
:1033E000FD1FEB58FD4F6081718182810E94730641
:1033F000472F282FCE010E94FB062196EACF84306A
:10340000B9F060911C0170911D01853009F0B0CFB9
:1034100080919C02B0CF11118DCF27CF60911F01F9
:1034200070912001F5CF6091220170912301F0CFBE
:103430006091250170912601EBCF109304018370F8
:10344000809303010E940B0A83E009CF809155020B
:103450008111B7DEE0905102F090520200915302C8
:10346000109154020E94B308DC01CB018E199F0910
:10347000A00BB10B4097A105B10508F4F6CE109250
:103480000501F3CEA0E1B0E0E8E4FAE10C941523E5
:10349000FE013196DF0180E11D928A95E9F70CE289
:1034A00010E099E4A92E91E0B92E612C712C250130
:1034B000539441949E2E8F2E6201730181E1481630
:1034C0005104610471041CF080E1C82ED12CA601C6
:1034D000B501892D982D0E948423AC0CBD1C0D2CA8
:1034E000000C00084C185D0860087008015010407E
:1034F00019F76096E0E10C9431236FEF85E290E0DC
:103500000E9493236FEF86E290E00E9493236FEF77
:1035100087E290E00E94932360E088E290E00E94BE
:1035200093230E941C0BAEDF60E485E290E00E94D2
:10353000932361E286E290E00E94932363E287E2B4
:1035400090E00C949323CDB7DEB7EA970FB6F894CA
:10355000DEBF0FBECDBF85B7806885BF85B78068E9
:1035600085BF84B7877F84BF0FB6F894A8958091F4
:103570006000886180936000109260000FBE80E858
:1035800090E00FB6F89480936100909361000FBEB5
:1035900081E0809309018BE596E08093040290938B
:1035A00005020E94ED090E949E098091E20084605C
:1035B0008093E20078948091A302811599F0809124
:1035C000E9001091EC008F7010FB112717F9182BF0
:1035D0001092E9008091E80083FD0E94F00B1F70BB
:1035E0001093E90082E084BD93E095BD9AEF97BD0A
:1035F00080936E000E944611811101C07EDFE6E6D5
:10360000F2E089E011928A95E9F784E080936502FF
:1036100010E060E0812F0E94C10761E0812F0E94CD
:10362000C1071F5F1430A9F78FE891E00197F1F708
:1036300000C0000010E080916502181708F480C0F7
:1036400000E911E0F80181918F018F3F11F00E9494
:103650005D0681E004391807A9F704E911E0F801D3
:1036600081918F018F3F11F00E945D0681E0083942
:103670001807A9F7E7EAF2E084E011928A95E9F7E2
:10368000EBEAF2E084E011928A95E9F780E090E0BD
:103690000E947F23833E9E4F21F40E944611811198
:1036A0002AC063EE7EEF80E090E00E94AD2360E0F0
:1036B00082E090E00E94932381E08093CB0261E05E
:1036C00083E090E00E94932360E074E184E090E066
:1036D0000E94AD2381DD11DF60E070E0AB018FE07F
:1036E00090E00E94A52360E070E0AB0183E190E0F0
:1036F0000E94A52366DD82E090E0F9D7809358020E
:1037000084E090E0FCD780931403909315030E940B
:103710007B0F8FEF96E721E0815090402040E1F74A
:1037200000C000000E947B0F8091A70280FF1AC09A
:103730006FEF7FEF80E090E00E94AD230E94310A9E
:1037400060E0812F0E94E107082F61E0812F0E9435
:10375000E107E12FF0E0EF59FD4F880F802B8083C8
:103760001F5F69CF83E090E0C2D70E9467030E9489
:10377000FE0781E08093550248E050E067E170E089
:1037800089E992E0A4D71092550280919902843081
:1037900008F422DD8AE091E08093B5029093B602AE
:1037A0008091A30212E1853009F47DC00E947B0F55
:1037B00009E512E047EAE42E42E0F42EF701D801D1
:1037C0009D91808122E0AD35B20709F476C0319633
:1037D0009817B1F3D12CF701C1907F01F8018191C5
:1037E0008F018C1519F18C25982EAA24A394B12C45
:1037F000892D8A21A1F0B982DA820E9483088B8305
:103800009C8381E08D8391E08C2D8A2109F490E0E6
:103810009E8349815A816B817C818D819FDBB3942A
:10382000AA0C8B2D843021F7F801C292D3948D2DF0
:10383000843089F60E94B30843C08091A30284308B
:1038400029F1E0DC1092560288E190E020E40FB606
:10385000F894A895809360000FBE2093600083B712
:10386000817F846083BF83B7816083BF78948895AC
:1038700083B78E7F83BF0FB6F894A89580916000C0
:10388000886180936000109260000FBE0E947B0FE1
:10389000E7EAF2E08081811100C531968BEA92E07F
:1038A0008E179F07B9F78091A302853009F4C5CF21
:1038B0000E94CA0B0E94230879CF98138BCFFFDB9D
:1038C000A1DC80916F02811551F080916802109205
:1038D0006F0280936902809166028093670210E014
:1038E00072C000916902B090680261E0812F0E946D
:1038F000E107F82E60E0812F0E94E107FF0C8F297D
:10390000412F50E0DA01AF59BD4FEC919E2F9370DB
:10391000891709F457C0EE0FEE0FE82BEC93EF7008
:10392000F0E0E85BFE4FCA01835A9D4F7C01208185
:10393000FC018081280F322F330F330B485A5E4F22
:10394000FA018081C82ED12C28173105BCF0EB2D4F
:10395000F0E0CF01019665E070E031D6AC010817C8
:10396000190661F0EA59FD4F912F9F779483409398
:103970006802809166028F5F80936602882799278C
:103980008C199D0982179307C4F0E0916802F0E05A
:10399000CF01019665E070E012D6AC010817190658
:1039A00061F0EA59FD4F912F90689483409368022B
:1039B000809166028F5F80936602C901B60113D6BB
:1039C000F70180831F5F80916502181708F489CF83
:1039D00090E02CEFE22E3DEFD32E809169022091F2
:1039E0006802281709F43EC090E0FC01E659FD4F3B
:1039F000F0800F2D0F77019665E070E0E0D58093A1
:103A00006902809167028F5F80936702F7FC06C0AE
:103A100009A7EAA60E94830813E005C009A7DAA651
:103A20000E94830812E0BC018BA79CA71DA781E020
:103A30008EA749A55AA5812F91E090DA0FA7F7FE2E
:103A40000FC0D8AA0E948308BC0189AB9AAB1BABFC
:103A50001CAA4FA558A9812F90E080DA91E0BDCF34
:103A6000E8AAF0CF91110E94B3080E942308909118
:103A70007002891721F0809370020E94B308809130
:103A8000A302843009F08CCE83E08093E90080911A
:103A9000E80082FF85CE8091E80090E085FF05C0B8
:103AA0000E946D09811529F191E08091E8008B77E2
:103AB0008093E800911509F473CE0091B102109142
:103AC000B202E9810115110591F1EE3F09F051C0F3
:103AD0008A81833020F08550833008F04AC0EA8123
:103AE000EE3008F046C0F0E0EB52FC4DCE010196FE
:103AF0008DC580E2E82EF12C8E010F5F1F4F809163
:103B0000E80085FD0AC08091E8008B778093E8008B
:103B10000E946D09811599F3C7CF8091F100F801DA
:103B2000808381E0E81AF10809F4BECFE6CFE431E2
:103B300048F4E11549F0E150E33130F4F0E0ED51A3
:103B4000FC4D64C5EE3F59F28FEF898312C01A8293
:103B500089E08B830EC08A81823081F08330B1F09E
:103B6000813091F70E94B30857D56B837C838D8396
:103B70009E83CE0101960E94B30712CE88E290E0A8
:103B8000B6D51B821C821D828E83F3CF8091A10249
:103B90009091A202892B69F38091A7028B83809177
:103BA000A8028C838091A9028D838091AA02ECCF18
:103BB0008A81823049F66B817C818D819E812CD5F2
:103BC00088E290E0B0D5D5CF4C816B818A810E948C
:103BD00030109827892798278D839E83CACF2D81FF
:103BE0003E813227232732274C816B818A810E94B4
:103BF000C50ABFCF0E941C0BBCCF8A81813491F1D2
:103C0000823409F0B6CF8D8190E09C01220F331FE2
:103C1000280F391F2E3131050CF0ABCF4B815C8161
:103C2000DE011196FA01EE0FFF1FE40FF51FEB58AE
:103C3000FD4F20E030E02817390708F09ACFB9018E
:103C4000640F751F6C30710508F093CF15966D9158
:103C500060836D9161836C91149762832F5F3F4FF6
:103C60003396E9CF0B811C810115110581F40E9467
:103C700016078D8180939D0280E00E94F5068E815B
:103C800020E048856F8190E00E94500772CF0E942B
:103C900009072FEE35E04BEF55E0F901329685919B
:103CA0009591F901659175916017710731F02C5F5D
:103CB0003F4F4217530789F780E060E00E942207D8
:103CC000D8CF8A81823409F468C088F5803409F439
:103CD0005EC0813409F04DCF20919902822F83700C
:103CE000A9F0269526958FEE95E0FC013296459138
:103CF0005591FC0165917591E62F372F2417150614
:103D000039F0049635E08B3F930779F7E0E030E037
:103D1000EB833C8380919D028D8380919A028E83F8
:103D200080919B028F8380919C02888722CF83346D
:103D300009F456C0843409F01CCF8B81482F50E021
:103D40008C3008F016CFFA01EE0FFF1FE459FE4F3A
:103D500080818B83FA01EE0FFF1FE45AFE4F8189A9
:103D60008C83FA01E45AFE4F80A58D838FEF8F83F9
:103D70008E836CE571E020E030E0FB0180E090E0B4
:103D8000A081A417150681F52E838F83F2CE81E0E2
:103D90008B831C828FEF8D83ECCE0B811C814EE1D7
:103DA00050E06FEF70E0CE0103968AD48FEE95E07D
:103DB0009E012D5F3F4FD9012EE1FC0145915591A8
:103DC0000417150728F4223048F04D935D932250D4
:103DD000049635E08B3F930781F7CBCE20E0F8CFF8
:103DE0008CE08B831C82C5CE319601968430910580
:103DF00039F62F5F3F4F6C5F7F4F2430310509F05C
:103E0000BCCFB7CEDED9B5CE86E08A83B2CE82E013
:103E10008A8387EB9ECE8C818D3108F0AACE8A8072
:103E20009B80982489249824A12CB12C8E010F5FAB
:103E30001F4F7801E80EF11CE016F10609F499CE47
:103E400087EB881682E09806A104B10470F4C401DF
:103E5000875B9E4F4CD4F80184830F5F1F4F8FEF19
:103E6000881A980AA80AB80AE7CF80E0F4CF8091B0
:103E7000A1029091A202892B09F47BCE7C80872D30
:103E80008D3108F076CECA80DB80DC24CD24DC24A2
:103E9000E12CF12C8E010F5F1F4F47015401871455
:103EA0009104A104B10408F064CE87EBC81682E047
:103EB000D806E104F10430F4F8016481C601875B9F
:103EC0009E4F31D48FEF881A980AA80AB80A8FEF4C
:103ED000C81AD80AE80AF80A0F5F1F4FE0CFD2DAF3
:103EE00048CE7C80872D8D3108F043CECA80DB80A0
:103EF000DC24CD24DC24E12CF12C470154018E017B
:103F00000B5F1F4F87149104A104B10408F031CE58
:103F100080ECC816D104E104F10488F4C601899646
:103F2000E6D3F80181938F018FEF881A980AA80AC7
:103F3000B80A8FEFC81AD80AE80AF80AE3CF80E077
:103F4000F0CF3C80E32CF12C832D8D3108F011CE85
:103F50008A819B819827892798272C01612C712CB5
:103F6000803C910508F005CEB30140EC50E04419C7
:103F7000550966097709431551056105710508F46E
:103F8000F8CD2091A1023091A2028E010F5F1F4F48
:103F9000232BD9F54C0129E2820E911C80FBCC2405
:103FA000C0F8D12C80FF0AC08896A1D32D81382F6C
:103FB000C90181159C4711F48FEF8D83C201D30194
:103FC000830D911DA11DB11D80FF18C0570181E017
:103FD000A81AB108CE0105968A0D9B1D8DAB9EAB2C
:103FE000C4018E0D9F1D83D3EDA9FEA92081922FC0
:103FF00081159C4711F48FEF80837501F801EC0D5A
:10400000FD1D2FEFCE14DF0420F0E12CF12C670111
:1040100024C044818581942F81159C4711F4248309
:10402000258382E0C80ED11C3296ECCF80EC481676
:1040300051046104710428F4F8016481C201899675
:1040400072D38FEFC81AD80AE80AF80A8FEF481A15
:10405000580A680A780A0F5F1F4FC314D104E1049D
:10406000F10420F386CD8091A1029091A202892BC8
:1040700009F47FCDCE0101960E94B3078FEF91EE38
:1040800024E0815090402040E1F700C0000056CB72
:1040900088E0E8E2F1E0DE01919601900D928A95C8
:1040A000E1F7FE0132968FE111928A95E9F786E0F9
:1040B000898388E0FE01B196DE01159601900D928C
:1040C0008A95E1F781E08D8754CD80E2898381E094
:1040D0008A831B8287CE0B811C81212F220F220B0A
:1040E000322F45E0000F111F221F331F4A95D1F7D1
:1040F000003E4FEF14072407340708F03ACD003292
:1041000041E014072105310508F033CDA801B901BC
:10411000405E5F4F6F4F7F4F4132E1E05E076105C8
:10412000710510F040E251E0401B510BB8016153A2
:104130007B4FB0D21ECD1B810C8140E0602F812FC0
:104140000E945A1098278927982789839A8341E0EB
:10415000602F812F0E945A109827892798278B83D8
:104160009C8307CD2E813F812C37310569F03227A2
:104170002327322741E08D81811101C040E06C810D
:104180008B810E94EB0AF5CC8091A1029091A20252
:1041900020E03CE7892B71F720E030E0EBCF4AE1EB
:1041A00050E06FEF70E0CE0107968AD28091A102B5
:1041B00089830A8383E08B831C828D83E5CC81E035
:1041C0008093B1021092B20282E380937302109244
:1041D00074020E9483088093710290937202C9CC8A
:1041E00001151105C9F1D090AA02E0907102F0907A
:1041F00072020E9483088E199F098536910598F1F5
:10420000D3FA882780F98FAB18AE8D2D817089AFD6
:104210001AAE8FA998AD29AD3AAD82239323892B8D
:1042200011F10E9483088093710290937202809131
:1042300073029091740201978093730290937402B9
:10424000892B51F41092B1021092B20281E0809356
:10425000A1021092A20200E08091A10289830A8348
:104260008091730276CC82E3809373021092740281
:10427000F3CF1092A1021092A2027BCC40E250E058
:104280006FEF70E01DD275CC2B81211172CCFC0137
:1042900080E211928A95E9F76CCC809157028115E2
:1042A00009F401CB80E189BD19BD09B400FEFDCF41
:1042B0008091D8008F7D8093D8008091E00082604B
:1042C0008093E0008091E00081FDFCCF0E94CA0B4A
:1042D000EACA1F921FB61F9211248F939F93AF9328
:1042E000BF9380915602811113C080912102909159
:1042F0002202A0912302B09124024196A11DB11D7A
:104300008093210290932202A0932302B09324026F
:10431000BF91AF919F918F911F901FBE1F901895D5
:1043200078941F921FB61F9211248F939F93AF937F
:10433000BF938091210290912202A0912302B0911B
:1043400024020196A11DB11D8093210290932202A7
:10435000A0932302B0932402BF91AF919F918F91BC
:104360001F901FBE1F9018951F920F920FB60F92AD
:1043700011242F933F934F935F936F937F938F936A
:104380009F93AF93BF93EF93FF938091E10082FFE0
:1043900009C08091E20082FF05C08091E1008B7F1F
:1043A0008093E1008091DA0080FF24C08091D800E2
:1043B00080FF20C08091DA008E7F8093DA008091A8
:1043C000D90080FFA9C080E189BD82E189BD09B41F
:1043D00000FEFDCF81E08093A30280911002811145
:1043E00009C00E94ED090E949E098091E20084604C
:1043F0008093E2008091E10080FF1AC08091E2008A
:1044000080FF16C08091E2008E7F8093E200809151
:10441000E20080618093E2008091D8008062809306
:10442000D80019BC85E08093A30283E08093090142
:104430008091E10084FF2FC08091E20084FF2BC0B7
:1044400080E189BD82E189BD09B400FEFDCF809184
:10445000D8008F7D8093D8008091E1008F7E80937B
:10446000E1008091E2008F7E8093E2008091E20083
:1044700081608093E20080910F02811509F452C09F
:1044800084E08093A3028091A302843009F052C09B
:1044900082E0809309018091E10083FF2CC080912C
:1044A000E20083FF28C08091E100877F8093E100D4
:1044B00082E08093A30210920F028091E1008E7F30
:1044C0008093E1008091E2008E7F8093E2008091F2
:1044D000E20080618093E20042E060E080E00E94C0
:1044E0001E098091F00088608093F00081E0809345
:1044F000090180930801FF91EF91BF91AF919F91C6
:104500008F917F916F915F914F913F912F910F907C
:104510000FBE0F901F90189519BC1092A302109215
:10452000100268CF8091E30087FF02C083E0A9CF2B
:1045300081E0A7CF81E0ADCF1F920F920FB60F920F
:1045400011241F932F933F934F935F936F937F9308
:104550008F939F93AF93BF93CF93DF93EF93FF938B
:10456000E9EEF0E080811091EC008F7010FB1127D4
:1045700017F9182B1082C0EFD0E08881877F8883DD
:1045800078940E94F00BE9EEF0E010828881886058
:1045900088831F701083FF91EF91DF91CF91BF91BE
:1045A000AF919F918F917F916F915F914F913F91CB
:1045B0002F911F910F900FBE0F901F901895AA1B5F
:1045C000BB1B51E107C0AA1FBB1FA617B70710F0FE
:1045D000A61BB70B881F991F5A95A9F78095909530
:1045E000BC01CD01089597FB072E16F4009406D068
:1045F00077FD08D0E4DF07FC05D03EF49095819567
:104600009F4F0895709561957F4F0895EE0FFF1F9E
:104610000590F491E02D099469279627692778275A
:104620008727782708952F923F924F925F926F923B
:104630007F928F929F92AF92BF92CF92DF92EF9232
:10464000FF920F931F93CF93DF93CDB7DEB7CA1BB3
:10465000DB0B0FB6F894DEBF0FBECDBF09942A88DE
:10466000398848885F846E847D848C849B84AA8486
:10467000B984C884DF80EE80FD800C811B81AA8113
:10468000B981CE0FD11D0FB6F894DEBF0FBECDBFDE
:10469000ED010895FB01DC0102C005900D9241502F
:1046A0005040D8F70895FB01DC0104C08D910190C2
:1046B000801921F441505040C8F7881B990B089588
:1046C000DC0101C06D9341505040E0F70895DC01DA
:1046D000CB01FC01F999FECF06C0F2BDE1BDF89A0D
:1046E000319600B40D9241505040B8F70895F999B1
:1046F000FECF92BD81BDF89A992780B50895A8E1B3
:10470000B0E042E050E0E5CFDC01A40FB51F41501E
:10471000504040F0CB01840F951F2E9105D04150A1
:104720005040D8F70895262FF999FECF92BD81BD4C
:10473000F89A019700B4021639F01FBA20BD0FB6DF
:10474000F894FA9AF99A0FBE08950396272FECDF92
:10475000EADF252FE9DF242FE7CF0196272FE4DFBB
:10476000E2CFF894FFCFCE0CF40CFA0CF40CFA0C58
:10477000480D6A0DFA0C6E0E7B0E0B130E133D13D3
:1047800013134213181347131D134C132213511301
:1047900034133A130B130E133D1313134213181350
:1047A00047131D134C1322135113482065206B200F
:1047B0009B20B220CF20DF20F02039213E21B91DDF
:1047C000B91DB91D4421A71DAB1DD81DE41DEF1D4A
:1047D000FA1DFD1D611E021FA41D3320041F071FAB
:0C47E0000B1F371F6F1F041F711FA11F4C
:1047EC0000FF00FFFF03000001008008970ABF08CC
:1047FC00C008AA0A8F0A00FFFF15FFFFBFFFFF00CA
:10480C00FFFF55FFFFAAFFFF26450A2A191D540377
:10481C00004422320001DE00AC0056016F018F0112
:10482C009532F5C69333F6F000FF0100010000FF4E
:10483C00FF0000010001FF00020404040302010058
:10484C00040506070B0A0908FFFFFFFF030002001F
:10485C000100000000010101020103010302020238
:10486C000102000204040404040404040404040407
:10487C0094973435676696F4E200E900EA00B500D7
:10488C00B600B700CD008301CC008A0192019401DF
:10489C002102230224022502260227022A02B30047
:1048AC00B4006F0070009F01CB019F02A002E200D8
:1048BC00E900EA00B500B600B700CD008301CC00DA
:1048CC008A0192019401210223022402250226026C
:1048DC0027022A02B300B4006F0070009F01CB01C5
:0448EC009F02A00285
:00000001FF
