:1000000021C3000058C3000056C3000054C30000C1
:1000100052C3000050C300004EC300004CC3000098
:100020004AC3000048C300000C94F1230C94D92467
:100030000C94A62340C300003EC300003CC3000054
:100040003AC3000038C3000036C3000034C30000C8
:1000500032C300000C94CD232EC300002CC300003B
:100060002AC3000028C3000026C3000024C30000E8
:1000700022C3000020C300001EC300001CC30000F8
:100080001AC3000018C3000016C3000014C3000008
:1000900012C3000010C300000EC300000CC3000018
:1000A0000AC3000008C3000006C3000005010902DE
:1000B000A10185020901A1000509190129081500FE
:1000C0002501950875018102050109300931158165
:1000D000257F95027508810609381581257F9501D0
:1000E00075088106050C0A38021581257F95017572
:1000F000088106C0C005010980A101850319012AF4
:10010000B700150126B700950175108100C0050CD8
:100110000901A101850419012AA002150126A002E6
:10012000950175108100C00660FF0961A101096297
:10013000150026FF00952075088102096315002629
:10014000FF00952075089102C005010906A101056F
:100150000719E029E7150025019508750181029529
:1001600001750881010507190029FF150026FF0008
:100170009506750881000508190129051500250156
:10018000950575019102950175039101C009025B06
:1001900000030100A0FA09040000010301010009A5
:1001A0002111010001224400070581030800010913
:1001B00004010002030000000921110100012222B4
:1001C0000007058203200001070503032000010941
:1001D0000402000103000000092111010001227B3B
:1001E000000705840320000112010002000000083E
:1001F000545701C40001010203011C037600690089
:1002000061006C003A006600360034006300320082
:100210006200330063000000200363007800740074
:100220005F00730074007500640069006F002000B7
:10023000310032004500340000000803430058003C
:100240005400000004030904000000000000000046
:10025000000000000000000000000000000000009E
:100260000000000000000000000000007E0F00D42D
:10027000FFFFFFC700000078000000000000000042
:100280002A2B2800000000000000000000000000F1
:1002900000000029000000002C1E342021222434FC
:1002A0002627252E362D3738271E1F2021222324CE
:1002B00025263333362E37381F0405060708090A6A
:1002C0000B0C0D0E0F101112131415161718191A06
:1002D0001B1C1D2F3130232D350405060708090A84
:1002E0000B0C0D0E0F101112131415161718191AE6
:1002F0001B1C1D2F3130354C290044000000AD007F
:1003000000000000BC00BB000000AE00AE00AB006F
:10031000A800000000004278010001000100010077
:1003200001000100010001000100010001000100C5
:1003300001000100010001000100010001000100B5
:1003400001000100010001000100010001000100A5
:100350000100010001000100010001000100010095
:100360000100010001000100010001000100010085
:100370000100010001000100010001000100010075
:100380000100010001000100010001000100010065
:100390000100010001000100010001000100010055
:1003A0000100010001000100010001000100010045
:1003B0000100010001000100A900AA00457846786B
:1003C00049784A784378447801000100010001002F
:1003D0000100010001000100010001000100010015
:1003E0000100010001000100010001000100010005
:1003F00001000100010001000100010001000100F5
:1004000001000100010001000100010001000100E4
:1004100001000100010001000001010101010101D1
:1004200001010202020202020202020303030303A9
:100430000303030404040404040405050505050678
:100440000606060607070707070808080809090936
:10045000090A0A0A0B0B0B0C0C0C0D0D0D0E0E0EDF
:100460000F0F0F1010111111121213131414151570
:1004700016161717181819191A1A1B1B1C1D1D1EE2
:100480001E1F202021222223242425262627282936
:10049000292A2B2C2D2D2E2F303132323334353664
:1004A0003738393A3B3C3D3E3F4041424344454664
:1004B0004748494A4C4D4E4F505153545556585940
:1004C0005A5B5D5E5F616264656668696B6C6D6FE7
:1004D0007072737577787A7B7D7E8082838587885A
:1004E0008A8C8E8F91939596989A9C9EA0A2A3A594
:1004F000A7A9ABADAFB1B3B5B7BABCBEC0C2C4C695
:10050000C9CBCDCFD1D4D6D8DBDDDFE2E4E7E9EB50
:10051000EEF0F3F5F8FAFDFFFD377A585A000004C3
:10052000E6D6B4460200210116000000742FE5A3B0
:10053000E0023600DF5D003D8889C65436C3174FA0
:10054000E4DCC3975197BF5126A33ABACE1FDDDD35
:100550003280A6C5675FD1CA72C33E949CE6E29220
:100560006C784FB4A4682D05E97FD65BB34858C8B2
:10057000FE9684C30C887AF392C684285F9D224934
:100580005B5F1C362288D007FC812C2F93097326D1
:10059000C645870A3ECA4D11D5408C4371450B357F
:1005A000BACAD0B9008152512321BBF565A5EDC46B
:1005B0002550FC0DA385EDFBAFAE3D14E310C34FFA
:1005C0000702C0AF61E0A3F4DBE53B7E66789A7E6C
:1005D000C40AC3956ADE6B6B25E0A5C3A1F5EDEEF9
:1005E0000E22A779CEB765AA0BACC29CFB3370363E
:1005F00094EAD484294E87DF66E9CB5BE255C017C5
:10060000637673D71B79EC88002019D2AFA097AA24
:100610000B3F479047EB0000864157FF32458BE781
:100620000001FB01B704000048CACC06B1C467FB57
:10063000020000000004595A0000000001000200FE
:100640000200010011241FBECFEFDAE0DEBFCDBFF4
:1006500004B603FE19C08091230390912403A09156
:100660002503B09126038730904BA740B04B61F42F
:100670001092230310922403109225031092260354
:10068000E0E0F8E3099500C012E0A0E0B1E0E4EAA0
:10069000FCE402C005900D92A430B107D9F723E025
:1006A000A4E0B2E001C01D92A332B207E1F70E94BC
:1006B0000A1C0C94EE25A4CC9C0191509F31B8F4F7
:1006C000832F817034FF0BC08295807F31FD806263
:1006D00032FD806433FD8068FB010995089531FD8A
:1006E000826032FD846033FFF7CF8860F5CF80E011
:1006F000F3CF982F92959F7061F420E0982F892F67
:100700008695869511F02E5F982F892F8695820FFA
:10071000089524E0F4CF8093D80208958093D902FD
:10072000089521E001C0220F8A95EAF78091D9024D
:10073000822BF4CF21E001C0220F8A95EAF7822FA5
:1007400080959091D9028923E9CFCF93C1E061FDD3
:10075000C4E060FDCC0F62FDC29593E0769567958D
:100760009A95E1F79B01220F331F260F371F420F87
:10077000531FFA0140E050E090E06191DF019C01DD
:10078000042E02C0369527950A94E2F72695220B8F
:1007900026272C2326272E934F5F5F4F433051058A
:1007A00061F7CF910895A82FA77023E096958795BC
:1007B0002A95E1F79C01220F331F820F931F680FC8
:1007C000791FFB0140E050E080E0219130E00A2EEB
:1007D00002C0369527950A94E2F72170042E01C0D5
:1007E000220F0A94EAF7822B4F5F5F4F4330510587
:1007F00061F70895282F862F903F69F0943060F4B8
:10080000243048F434E0939FB0011124620F711D2D
:1008100046EC52E09ACF08959C5F9230E0F7622F49
:1008200070E043EC52E0F6CF903FA9F0943060F4D2
:10083000843088F444E0949F9001112466EC72E0C7
:10084000820F932F911DAFCF9C5F923020F463EC09
:1008500072E090E0F8CF80E008959091D90221E015
:1008600030E0F90101C0EE0F8A95EAF7D90101C025
:10087000AA0F6A95EAF7EA2B01C0220F4A95EAF718
:10088000892F8E23E81303C0892F822B47CF209511
:10089000822F8923FBCFE091E1029091E002E913DE
:1008A00002C080E008959F0157E0E59FF001112408
:1008B000EE51FD4F5181561306C05081581303C0AD
:1008C0005581541305C02F5F3F4FF901E770E7CF03
:1008D00081E008958091E1022091E002281301C097
:1008E000089501968770FACF9091DB028095892355
:1008F0008093DB02282F277081F4891771F0909183
:10090000220392FF0AC086958695869513DF109282
:10091000DB021092DC021092DD0208958095982F80
:100920008091D60289238093D60208958091D502C2
:10093000811531F01092D5021092DE021092DF0282
:100940000895803E9105D1F1C8F48133910509F4F1
:1009500081C048F48932910509F471C08A32910549
:1009600009F47FC0089589339105E1F0823891053B
:10097000C9F08533910509F45DC00895843E910561
:10098000D1F148F4823E910531F1833E910541F168
:1009900081EE90E00895863E9105C1F1873E910574
:1009A000F1F1089520912103237009F064C0209192
:1009B000220323FF14C089E290E0089520912103CF
:1009C00020FD45C03091220330FF09C024FD24C022
:1009D00083EE90E008952091210322FDF7CF089542
:1009E0002091210322FD44C03091220330FD43C0F9
:1009F00024FFF5CF11C02091220321FFF0CF809179
:100A0000210384FD09C087EE90E008952091210321
:100A100023FFE5CF24FFF7CF80E090E008952091F9
:100A2000210323FD2BC03091220331FFE1CF84EE5F
:100A300090E008952091210325FFD1CFBCCF2091D4
:100A4000210325FD1EC02091220323FFC8CF89E387
:100A500090E008952091210326FFC1CF8AE290E023
:100A600008952091210326FFBACF81E390E00895F5
:100A700082EE90E0089580EE90E0089586EE90E09A
:100A8000089585E390E008959091210392FF10C0AE
:100A900041E0282F2471243009F040E031E0282F74
:100AA0002871283009F030E0431711F02CE082273C
:100AB00093FF10C041E0282F2471243109F040E059
:100AC00031E0282F2871283109F030E0431711F068
:100AD0002CE082273091220330FF10C051E0282FF4
:100AE0002171213009F050E041E0282F2871283091
:100AF00009F040E0541711F029E0822731FF10C0BF
:100B000041E0282F2171213109F040E031E0282F08
:100B10002871283109F030E0431711F029E08227CD
:100B200094FD877E08950F931F93CF93DF9309DF82
:100B3000EC01D23508F04DC0D03508F0C3C0C03E3E
:100B4000D10530F5CD3CD10508F09AC0C83AD105A1
:100B500078F4C53AD10508F090C0C130D10599F1BB
:100B6000CE010497813A910570F1C0E0D0E02BC02E
:100B7000CE01885A91094B97C0F7C85AD0E0CC0FE4
:100B8000DD1FC856DE4F0990D881C02DD4641BC02C
:100B9000D03490F4D03208F0A8C0C83ED10598F007
:100BA000CE0191509F3108F78D2F6EDF082F8C2FCB
:100BB00090E0C7DE902B54C08C2F90E0C2DEDF7037
:100BC000C82FD92BD06ACE01DF91CF911F910F9101
:100BD0000895C03882E5D807B8F5C03682E5D80751
:100BE00008F056C0C03482E5D807C8F4C03282E5A8
:100BF000D80708F047C08C2F8695869520E2829F03
:100C0000C0011124C37021E030E002C0220F331F65
:100C1000CA95E2F7E901C82BD92BDD68D4CF8C2F18
:100C200086958695877020E2829FC0011124C3704B
:100C300021E030E002C0220F331FCA95E2F7E9013C
:100C4000C82BD92BDC68BFCFC03C82E5D80750F455
:100C50008C2F8F71C03AD24580F5982F84EF906A1F
:100C6000EC01B1CFCE01805C9245809708F07DCF3A
:100C7000DC2FDF71C0EFD06AA6CFA497D064A3CFDA
:100C8000D065A1CF8C2F8F71D82FC1EFD06A9BCFA9
:100C90008C2F86958695877020E2829FC001112453
:100CA000C37021E030E002C0220F331FCA95E2F783
:100CB000E901C82BD92BDA6886CFE6DEC0E0D82F51
:100CC000D06281CF8C2F8F71DFDE93E0CC0FDD1FE0
:100CD0009A95E1F7DF70282F84FF04C090E1899F87
:100CE00090011124C22FD0696ECF8D2F8F71CCDE71
:100CF000082F8C2F90E025DE902BEC01E1CF80E0D7
:100D00000895F894E82FE295EF70F0E041A18F701C
:100D100021E001C0220F8A95EAF7922F9095942343
:100D200091A392A1822F892B82A378940895CF92C8
:100D3000DF92EF92FF921F93CF93DF93462F172FEF
:100D4000E82FF0E0E85EFB4F71110CC0E4918E2FAC
:100D50007E2F6E2FDF91CF911F91FF90EF90DF904C
:100D6000CF900895F491EF2F86E0689FE001112461
:100D70002FEF30E0CE01B9010E941C25DB01CA0132
:100D8000880F991F65E56A9FA0016B9F500D112484
:100D9000841B482F440F480FC901811B9109F89FFC
:100DA0007001F99FF00C11248F2D149FB0011124B4
:100DB000672F70E06901C61AD70AB601F69F600175
:100DC000F79FD00C1124A330B10549F1B901641B80
:100DD0007109AB01149FB001159F700D1124672F8D
:100DE00070E0261B370BF29FA001F39F500D1124DA
:100DF000752FCC3FD34050F4A130B105A1F012972C
:100E000009F0A7CFEF2D852F7F2FA3CFA430B105F9
:100E100069F0169709F49DCF7F2D8D2D9ACF7D2DEA
:100E2000EF2D8F2F96CF7F2FED2D93CFE52F7F2D99
:100E3000F8CF90915502982B90935502089504C1D4
:100E400008950DC1089580919D0291E089278093B6
:100E50009D021092050181E0ECCF80919D0283708C
:100E600011F41092050180919D028C7F8160809326
:100E70009D02089580919D02837011F010920501EA
:100E800080919D028C7F80939D02089590919D0298
:100E9000937091F0811589F0833088F48F73880FF7
:100EA000880F982F20919D022370922B90939D0282
:100EB00010920501862FBDCF089581E0F0CF82E02A
:100EC000EECF80919D02869586958F5F833008F0E6
:100ED00081E061E0DBCF80919D028695869581500F
:100EE00009F482E061E0D2CF90919D02937041F0CD
:100EF00080939E0260939F024093A002822F99CF1D
:100F00000895EDE9F2E0818190E021E04381628182
:100F10000896EACFEDE9F2E0818121E04381628128
:100F20008850990BE1CFEDE9F2E0628120E1620F98
:100F300008F46FEF818121E0438190E0D5CFEDE9A6
:100F4000F2E0628120E1621B08F460E0818121E02F
:100F5000438190E0C9CFEDE9F2E0438120E1420F07
:100F600008F44FEF818121E0628190E0BDCFEDE98F
:100F7000F2E0438120E1421B08F440E0818121E05E
:100F8000628190E0B1CF2091A10230E1230F08F4FB
:100F90002FEF2093A10281E04CCF2091A10230E1FC
:100FA000231B08F420E02093A10281E042CFE091CE
:100FB000B902F091BA02309739F00284F385E02D3E
:100FC000309711F060E20995089590E06115D1F035
:100FD0008C5B9E4FFC0180818F3F99F0E82FE2955A
:100FE000EF70F0E041A18F7021E001C0220F8A95DF
:100FF000EAF7922F9095942391A392A1822F892BA7
:1010000082A30895805C9E4FE5CF90E06115A9F022
:101010008C5B9E4FFC0120812F3F91F0E22FE295E7
:10102000EF70E05EF0E0808190E02F7002C0959557
:1010300087952A95E2F781700895805C9E4FEACFEC
:1010400080E00895879A0895FC01EE0FFF1FE80FD6
:10105000F91FE75DFD4F6183408322830895FF926E
:101060000F931F93CF93DF93182F062FF42EC0E01A
:10107000D0E02F2D402F612FCE01E6DF2196CC301E
:10108000D105B9F7CDB7DEB7E5E00C947925382F57
:1010900025EB3203C001112497FF04C08058910949
:1010A000892F089580589F4FFBCF8091CE0280FDFD
:1010B00014C081FD14C082FD16C08091CD0281153F
:1010C00081F08E3180F420E5829FC00111246EE111
:1010D00070E00E943025862F089584E1089588E20B
:1010E000089588E0089580E508958091CE0280FDFE
:1010F00017C081FD17C082FD19C08091CC028115F7
:1011000099F0883298F428E0829FC001112468E2A7
:1011100070E00E9430256115710551F0862F089509
:1011200062E0FCCF64E0FACF61E0F8CF68E0F6CF90
:1011300081E00895E091B902F091BA02309739F058
:101140000190F081E02D309711F00995089580E02D
:101150000895A3E0B0E0EFEAF8E00C946025209158
:1011600027023091280228173907B1F0809327020F
:1011700090932802E091B902F091BA02309761F0A1
:101180000084F185E02D309739F023E029838A83AC
:101190009B83CE01019609952396E2E00C947C2571
:1011A000A3E0B0E0E6EDF8E00C9460252091250284
:1011B0003091260228173907B1F0809325029093C9
:1011C0002602E091B902F091BA02309761F00084F2
:1011D000F185E02D309739F024E029838A839B83C1
:1011E000CE01019609952396E2E00C947C2580912E
:1011F000070108952FB7F89480912102909122025F
:10120000A0912302B09124022FBF08959091220350
:1012100092FF0EC0982F990F990F990F962B9093CC
:10122000DB027FDAE7DF8093DC029093DD02089532
:1012300078CA9091D502292F282359F080958923C7
:101240008093D50290E08111D5DF8093DE029093E8
:10125000DF020895CFDF9C019091D1028091D202EC
:10126000982B21F020937202309373029091D30255
:101270008091D402982B21F0209370023093710258
:10128000E091B902F091BA02309759F00680F781E7
:10129000E02D309731F082E08093CF028FEC92E026
:1012A00009950895611509F440C0E82FED5CE3311C
:1012B00048F4F0E0E051FA4D0C944325F6DE8195B8
:1012C0008093D202C7CFF1DEFBCFEFDE8195809312
:1012D000D102F8CFEADEFBCF08DF8093D302F2CF52
:1012E00004DF8195FACF01DF81958093D402EACFA4
:1012F000FCDEFBCF815D990B21E001C0220F8A95B6
:10130000EAF78091D002822B8093D002DBCF8091CC
:10131000CE0281608093CE02D5CF8091CE028260D2
:10132000F9CF8091CE028460F5CF4091D1028D3CFF
:1013300059F48091D20287FF0DC01092D20241155C
:1013400059F41092CD0208C08E3C81F48091D202F3
:1013500018169CF3411581F08091D3029091D4022C
:10136000892B09F0AFCF1092CC02ACCF8F3C41F467
:1013700047FFF0CF1092D1028091D2028115E0CFC9
:10138000803D19F41416B4F3E5CF9091D302893D52
:1013900029F41916FCF61092D302DCCF8A3D19F419
:1013A00097FFD8CFF8CF9091D4028B3D29F497FFC7
:1013B000D1CF1092D402CECF8C3D19F41916CCF3B4
:1013C000C9CF982F915D983078F4815D990B21E019
:1013D00001C0220F8A95EAF7822F80959091D00262
:1013E00089238093D002B6CF8D3D31F48091CE0217
:1013F0008E7F8093CE02AECF8E3D21F48091CE02BF
:101400008D7FF7CF8F3D09F0A5CF8091CE028B7FE6
:10141000F0CF2FB7F8946091210270912202809151
:101420002302909124022FBF08950895FC0120917A
:101430001702309118022617370748F06115710519
:1014400029F49091E8009E779093E8009B0190E04A
:101450002115310541F4911106C08091E80082FF09
:1014600032C080E008958091A7028115C1F18530D6
:10147000C1F18091E80083FD30C08091E80082FDD9
:10148000ECCF8091E80080FFE3CF8091F3004091A2
:10149000F200582F2115310519F04830510558F048
:1014A00091E04830510509F090E04091E8004E7716
:1014B0004093E800CDCF81918093F1002150310914
:1014C0004F5F5F4FE7CF8091A702811541F08530D4
:1014D00041F08091E80083FFC0CF81E0089582E071
:1014E000089583E00895982F9093E900891771F08B
:1014F0007091EC002091ED005091F00021FD09C0A9
:101500009F5F973089F78093E9000895762F242F05
:1015100050E03091EB003E7F3093EB003091ED00D6
:101520003D7F3093ED003091EB0031603093EB0064
:101530007093EC002093ED005093F0002091EE00AA
:1015400027FDDECF08958091110287FF13C080919F
:10155000E80082FF06C08091E8008B778093E80066
:1015600008958091A7028111F2CF08958091A7027A
:101570008115D9F38091E80080FFF8CF8091E800D1
:101580008E77ECCF2091E4003091E50095E6A9013B
:101590002091EC00822F817020FF06C08091E8002E
:1015A00080FF06C080E008952091E80022FD1AC067
:1015B0008091A702811589F0853089F08091EB0038
:1015C00085FD0FC02091E4003091E50042175307DC
:1015D000F9F29150E1F684E0089582E0089583E005
:1015E000089581E00895CF93DF93C8EDD0E088811E
:1015F0008F7E8883E7EDF0E080818160808384E0E6
:1016000082BF81E08093100288818E7F8883E2EE22
:1016100010821092DA00A1EEB0E01C9288818F77E0
:10162000888388818068888388818F7D888319BCBE
:101630001092A70210920F021092570210920E02FF
:10164000A0EE8C918B7F8C9388818160888342E0AF
:1016500060E080E048DFA1EEB0E08C918E7F8C935B
:10166000E2EEF0E080818160808380818860808309
:10167000E0EE80818E7F8083888180618883DF9126
:10168000CF910895E8EDF0E080818E7F8083109205
:10169000E2001092DA001092E100A0EEB0E08C912E
:1016A00081608C9380818F77808319BCA7ED8C91AA
:1016B0008E7F8C9380818F7E80831092100208959C
:1016C00031B33F7721B320684FB7F89489E292E0B5
:1016D000FC010196508168E021BB000000C057FF6B
:1016E00031BB550F000000C000C000C031BB00C0BE
:1016F0006A9591F752E08D34950751F74FBF8FE50A
:1017000094E00197F1F700C00000089581E0809314
:10171000E00080E28093D8001092C9008FE19EE43F
:101720000197F1F700C00000A7E0B0EBCD01809376
:10173000230390932403A0932503B093260388E109
:101740009CE00FB6F894A895809360000FBE90932C
:101750006000FFCF0F931F93CF93DF93EB018A01BC
:101760009091A702943059F58093E9008FEF909102
:10177000E80095FD06C095ED9A95F1F700008150BF
:10178000B1F78091E80085FF1AC0FCDE811112C01C
:101790008091E80085FD06C08091E8008E778093F7
:1017A000E800F3CF88818093F1000150104011F0E0
:1017B0002196EECF8091E8008E778093E800DF914C
:1017C000CF911F910F910895603229F440E250E0CB
:1017D000BC0182E0BFCF0895CF93DF93EC0148E0D6
:1017E00050E0BC0181E0B6DF88E0FE01A9E1B2E093
:1017F00001900D928A95E1F7DF91CF91089546E02F
:1018000050E0BC0184E0A6CF43E050E0BC0184E09E
:10181000A1CF9091220392FB222720F9281771F083
:1018200080FB92F99093220360912103709122032F
:1018300084E090E00E94EA2582E056C808951F9354
:10184000CF93DF93122F8630E0F4962F942B9430B1
:10185000C0F498E0699FE0011124C40FD11DC40FAA
:10186000D11D20E2829FC0011124C80FD91F632F10
:10187000CE0189960E94D025612FCE018A960E94C2
:10188000D025DF91CF911F9108950F931F93CF9390
:10189000DF93142F022F863020F5643010F590E18D
:1018A000899FE001112424E0629FB0011124C60F3A
:1018B000D71FC751DF4F81E08427632F9E01280F78
:1018C000311D280F311DC9010E94D02581E090E013
:1018D000111102C083E090E0602F8C0F9D1F0E94C9
:1018E000D025DF91CF911F910F9108958F929F92F4
:1018F000BF92CF92DF92EF92FF920F931F93CF93FD
:10190000DF93C090A502D090A60281E08093A5024B
:101910001092A602E12CF12CC0E04701D0E013C0E8
:10192000F801259135914B2D6D2F8C2F88DF0E5F9F
:101930001F4FB3948B2D843099F784E0880E911C4F
:10194000DF5FD43039F08401000F111F08501D4FA4
:10195000B12CE6CF870108541C4FD0E0F801259147
:10196000359141E06D2F8C2F90DFF8013296259153
:10197000359140E06D2F8C2F88DF0C5F1F4FDF5FAC
:10198000D43061F7CF5F80E1E80EF11CC63009F07A
:10199000C4CFC092A502D092A602DF91CF911F9131
:1019A0000F91FF90EF90DF90CF90BF909F908F901E
:1019B0000895CF93C091D6028091DA02C82B80910E
:1019C000D5028115F1F016DC2091DE023091DF02A4
:1019D000821B930B8838934110F00E9496048091EB
:1019E000D502C82B20E088E092E0FC01308101960E
:1019F00031112F5F32E08E309307B9F721110E9429
:101A00009604C093060248E050E06BEB72E086E07B
:101A100092E00E949025892BB9F088E0E6E0F2E0A0
:101A2000ABEBB2E001900D928A95E1F7E091B9023B
:101A3000F091BA02309741F00280F381E02D3097A7
:101A400019F086E092E00995CF9108951092D602A0
:101A5000E8E0F2E086E011928A95E9F780E090E014
:101A600078DB80E090E09CDB1092DA02A2DFEFEC02
:101A7000F2E086E011928A95E9F71092CD02109279
:101A8000CC021092CE02E6CBE1DF8FEF94E32CE0A4
:101A9000815090402040E1F700C0000088E19CE0C8
:101AA0000FB6F894A895809360000FBE90936000E5
:101AB000FFCFAAE2B0E0EFE5FDE00C945F2581E105
:101AC00092E0FC0101962091F100208322E089310F
:101AD0009207B9F780911202893009F457C0C8F40F
:101AE000823009F4B3C0833009F483C0813081F1BE
:101AF0008091E80083FFE7C080911102909112026B
:101B00009A3008F0E0C0E92FF0E0ED5FF94D0C9459
:101B100043258A3009F48AC08B3051F78091110235
:101B2000813231F78091150290911602892B01F7CD
:101B30008091E800877F8093E80005DD81E0909147
:101B40001302911101C080E0809308017FDFD0CFA4
:101B500080911102813A61F68091E800877F80933D
:101B6000E8008091150290911602892B59F060E0EF
:101B700080E090E070E05ADC8091E8008B77809301
:101B8000E800B6CF68E089E192E0F4CF80911102DD
:101B9000813209F0ADCF80911502909116028D7FB0
:101BA000892B09F0A5CF8091E800877F8093E8001A
:101BB0008091E80082FF18C02091F3008091F2002C
:101BC000922F029731F48091F100813011F086302C
:101BD00021F48091F100809307018091E8008B77D8
:101BE0008093E800B0DC84CF8091A7028111E0CF20
:101BF0007FCF80911102813A09F07ACF809115024E
:101C000090911602892B09F073CF8091E800877FAD
:101C10008093E8008091E80080FFFCCF809108016C
:101C20008093F1008091E8008E77DACF80911102E5
:101C3000813209F05DCF8091E800877F8093E800D2
:101C400082DC809114028093060152CF80911102B0
:101C5000813A09F04DCF8091E800877F8093E800BA
:101C60008091E80080FFFCCF80910601D9CF8038B9
:101C700089F0823841F5809115028F70873018F510
:101C80008093E9008091EB0085FB882780F9109212
:101C9000E90006C080915702880F90910E02892BAF
:101CA0009091E800977F9093E8008093F100109264
:101CB000F1008091E8008E7723C0811116C08091D9
:101CC0001302813009F18091E80083FF0AC08091FE
:101CD000E800877F8093E8008091EB00806280932A
:101CE000EB00AA96E3E00C947B25823061F78091AB
:101CF0001302811579F01092E9008091E800877F46
:101D00008093E80020DCDFCF933009F080E08093FF
:101D10005702F1CF809115028F70282F2150263065
:101D200090F68093E9002091EB0020FFE4CF933000
:101D300031F48091EB0080628093EB00DCCF9091D6
:101D4000EB0090619093EB0021E001C0220F8A9597
:101D5000EAF72093EA001092EA008091EB00886095
:101D6000EBCF8111B0CF809113028F77182F809124
:101D7000E3008078812B8093E3008091E800877FE7
:101D80008093E800E0DB8091E80080FFFCCF809149
:101D9000E30080688093E30083E0111101C082E0DA
:101DA0008093A70290CF8058823008F08CCF80912A
:101DB0001302909114028C3D23E0920789F583E091
:101DC0008A838AE289834FB7F894DE01139620E074
:101DD0003EE051E2E32FF0E050935700849120FF62
:101DE00003C082958F703F5F8F708A30B8F0895C36
:101DF0008D931D922F5F243169F74FBF8091E800CA
:101E0000877F8093E8006AE270E0CE0101960EDBE6
:101E10008091E8008B778093E80055CF805DE8CF14
:101E2000292F30E02330310509F44EC078F52130F8
:101E3000310509F486C08BE590E0EDE8F1E0223051
:101E4000310509F040CF2091E800277F2093E8007A
:101E500020911702309118028217930708F49C0111
:101E600040E02115310509F071C041116FC080912A
:101E7000E80082FDCDCF8091A702811549F285301F
:101E800039F28091E80083FFF2CFC2CF8091150232
:101E9000909116022132310509F444C022323105F5
:101EA00009F011CF8330910508F00DCFFC01EE0F42
:101EB000FF1FEC5CFE4F0190F081E02D8F5C9E4F88
:101EC000DC018C9190E010C0282F30E0823011F1BD
:101ED0002330310568F4232BA9F4E4E4F2E0E49123
:101EE0008E2F90E0E4E4F2E0009709F4ECCEABCF63
:101EF00009F0E9CEEAEFF1E0E4918E2F90E0EAEF0D
:101F0000F1E0F2CFEAE3F2E0E4918E2F90E0EAE331
:101F1000F2E0EACFE8E1F2E0E4918E2F90E0E8E130
:101F2000F2E0E2CF8330910508F0CDCE880F991F03
:101F3000FC01E65CFE4F0190F081E02D89E090E02D
:101F400082CF82E190E0E8EEF1E07DCF8091A702C0
:101F5000811509F45DCF853009F45ACF8091E800EE
:101F600083FD56CF8091E80082FD81CF8091E8000B
:101F700080FF77CF4091F3008091F200942F2115DC
:101F8000310519F08830910550F041E0089709F0CB
:101F900040E08091E8008E778093E80062CF449122
:101FA0004093F1003196215031090196E8CF8038F5
:101FB00009F089CE8091E800877F8093E8008091C6
:101FC0000F028093F10075CE81117DCE80911302B6
:101FD000182F823008F077CE8091E800877F8093B9
:101FE000E80010930F02AFDA1115D9F084E0809366
:101FF000A70242E061EC81E076DA42E261EC84E043
:1020000072DA42E261EC82E06EDA42E260EC83E096
:102010006ADA8091A702843051F482E0809309014A
:1020200052CE8091E30087FDE1CF81E0E0CF81E0F7
:10203000F5CF0F931F93CF93C82F811539F184509B
:10204000813AA8F508E012E0F8018081C81711F183
:10205000319682E0EE30F807C1F7EFEF80E0D8016B
:102060009C91C91791F00F5F1F4FEF3F19F4911129
:1020700001C0E82F8F5F863091F7EF3F31F0FE2FE0
:10208000FF0FFF0BEA5FFD4FC28393DCCF911F91DF
:102090000F910895E8E0F2E08191C81302C0DF01DA
:1020A0001E9282E0EE30F807B9F783DCD6CF8C2F92
:1020B000805E883060F4C77081E001C0880FCA95E7
:1020C000EAF7C091D602C82BC093D602DECF8C2F80
:1020D000855A833028F48C2F8452990B3AD8D6CF66
:1020E000EC2FE85AEB3148F4F0E0EE0FFF1FE2531B
:1020F000FE4F8081918154D8C9CF8C2F8D5C833164
:1021000028F661E08C2FCED8C1CF8115A1F1982F90
:102110009450913A60F4E8E0F2E09191891302C0A2
:10212000DF011E9292E0EE30F907B9F742CC982F0A
:10213000905E983058F4982F81E091FD84E090FDF6
:10214000880F92FD82950E948E04F0CF982F955AA9
:10215000933020F480E090E00C94A908982F985ACE
:102160009B3118F480E090E01BC8982F9D5C933160
:1021700010F460E097C808951F93CF93DF93182F52
:10218000EB0157DF209731F4812FBFDFDF91CF9133
:102190001F9108958FE99FE00197F1F700C00000BB
:1021A0002197F0CF811531F09091D602982B909322
:1021B000D602FFCB0895811519F00E948E04F9CB49
:1021C0000895811531F09091DA02982B9093DA02FC
:1021D000F0CB0895811539F080959091DA0289232A
:1021E0008093DA02E6CB0895A4E0B0E0EAEFF0E1F4
:1021F0000C945925FE013196DF0184E01D928A95E9
:10220000E9F780E9E82E81E0F82E04E911E0DD2409
:10221000D394BE2ECF2EF70181917F018F3F09F419
:1022200045C0F894E82FE295EF70F0E021A18F709F
:1022300041E001C0440F8A95EAF7922F942B91A3B5
:1022400092A1842F8095892382A3789400C064E9A9
:1022500071E0EB2DFC2D4D2D4095DB019D91BD01D5
:1022600081919F3F09F44AC0292F22952F70205E4B
:1022700030E0D9012C919F7002C0359527959A9531
:10228000E2F720FD3BC08D299F0121503109D90182
:102290008C9381E06839780701F7F70182918F3FCD
:1022A00011F00E94810680EA8A95F1F7DD0C0E1587
:1022B0001F0509F0B0CF44E050E06B2D7C2D8FEA74
:1022C00092E00E949025892BD9F089819A81AB8177
:1022D000BC818093AF029093B002A093B102B093FF
:1022E000B20281E08093AA020E94FA088093A802B9
:1022F0009093A9022496E9E00C9475258423C4CF19
:102300008091AA028115B1F30091A8021091A9024F
:102310000E94FA08801B910B059760F344E050E09F
:102320006FEA72E08BEA92E00E949025892B81F09F
:102330008091AF029091B002A091B102B091B2022F
:102340008093AB029093AC02A093AD02B093AE0227
:102350001092AA02CFCF0F931F93CF93DF938630B3
:1023600008F5962F942B9430E8F498E0699FE001EB
:102370001124C40FD11DC40FD11D20E2829FC001C2
:102380001124C80FD91FCE0189960E94B425082FA9
:10239000CE018A960E94B425902FDF91CF911F9194
:1023A0000F91089580E090E0F8CFFF920F931F9374
:1023B000CF93DF93F42E863048F5643038F590E102
:1023C000899FE001112484E0689FB0011124C60FA9
:1023D000D71FC751DF4F81E084279E01280F311D91
:1023E000280F311DC9010E94B425082F81E090E01B
:1023F000F11002C083E090E08C0F9D1F0E94B42575
:10240000902FCDB7DEB7E5E00C94792580E090E021
:10241000F8CF2091B5023091B602232BC9F4703F5A
:1024200039F4603FA9F48091B3029091B402089509
:10243000743038F4643060F4863050F4462F672FDF
:102440008ACF7D3F41F4643018F441E0863050F08B
:1024500080E090E008957C3FD9F76430C8F786307B
:10246000B8F740E0A2CFCF92DF92FF920F931F9375
:10247000CF93DF936C010091D9028091D802082B91
:10248000C5E0D0E010E0C8010C2E02C095958795FC
:102490000A94E2F780FD0CC02197A8F7F12C8F2D4C
:1024A000DF91CF911F910F91FF90DF90CF90089512
:1024B000FC2EB6018C2FADDF0E949305019761F3CE
:1024C000EECF1F93CF93DF93FC012581C081D18193
:1024D000CE01211579F0611569F0C5DF182F682F3D
:1024E000CE010E94FA03BE01812F93DFDF91CF91CD
:1024F0001F9108950E941404182FF5CFCF93DF93F6
:10250000EC01B1DFBE0185DF0E949305DF91CF9121
:102510000895FC012481211599F080819181EEDFDD
:10252000282F92959F70963099F060F4925F9F707B
:10253000923030F4203FB1F038F481E0283E38F09A
:1025400080E008959A5FF3CF81E0243FC9F70895B2
:1025500091E0213F09F090E081E0283E08F080E022
:10256000892B089581E00895673B22E07207810579
:10257000910528F4CB01875B9E4F0C94B42580E035
:10258000089585E290E00E94B425803469F486E2E3
:1025900090E00E94B425813239F487E290E00E94F5
:1025A000B42591E0833209F090E0892F817008957D
:1025B000A0E0B0E0EEEDF2E10C945925EC01988139
:1025C000913000F109F044C08981813051F48A8151
:1025D000239660E570E0893311F060E070E0CCDDB7
:1025E000EECF823021F48A81239623DDE8CF833039
:1025F00021F48A81239689DDE2CF843041F022964E
:102600008111DDCFCDB7DEB7E9E00C9475258A8165
:10261000239620E030E09AE0482F4053550B4A3093
:10262000510560F02115310559F3EFE9FFE03197CD
:10263000F1F700C0000021503109F4CF929FB001A2
:10264000939F700D11249A01260F371F8991E4CFB3
:102650002196E92FF0E0E858FD4F8491B82E292FFC
:1026600026952695269530E0F901E859FD4FE4902E
:102670009770F12C092E02C0F594E7940A94E2F7C2
:10268000F901E85AFD4FC490D12C092E02C0D5940F
:10269000C7940A94E2F7285B3D4FF901049110E0DA
:1026A00002C0159507959A95E2F7E0FE02C081EE0B
:1026B000C0DCC0FE02C086EEBCDC60E070E08B2DAA
:1026C0005BDDC0FE02C086EE20DDE0FE02C081EED2
:1026D0001CDD00FF74CF60E070E08CE280CF4F9291
:1026E0005F926F927F928F929F92AF92BF92DF9292
:1026F000EF92FF920F931F93CF93DF9300D000D000
:10270000CDB7DEB77C01FC018481811551F161E018
:10271000C701D7DEF7013581311509F413C1AC01CA
:1027200057574038510508F0E3C0182F863050F451
:1027300066EB72E080E090E017DFA12CB12C450140
:102740008115A9F18091DB02877059F0F70185812D
:10275000811539F08091220382FF03C082E00E943C
:1027600074040F900F900F900F90DF91CF911F91F5
:102770000F91FF90EF90DF90BF90AF909F908F9060
:102780007F906F905F904F90089587EB881682E05E
:102790009806A104B104B1F2B401C501E5DE9FEFD2
:1027A000891A990AA90AB90A8111EFCF115011119A
:1027B000ECCF8E010F5F1F4FF80184E011928A95D4
:1027C000E9F7B401C501D0DE8983811509F4BACFD8
:1027D000240135019FEF491A590A690A790A8130A3
:1027E000E9F4B201C301C0DED82E8A83811509F451
:1027F000A9CFB401C5016E5F7F4F8F4F9F4F2D2D25
:102800002150233070F423E0820E911CA11CB11CD6
:1028100024013501A9DE8B838115A1F1C801C8DE31
:1028200031C02D2D2550233080F52401350123E0C2
:10283000420E511C611C711C97DE8B83811511F1B6
:1028400084E0880E911CA11CB11CB201C3018CDE76
:102850008C838115A9F06B807C8081E068168FEFF6
:10286000780610F0762C612C8D2D863039F087306B
:1028700011F0C301ADD5C301DBD502C0C301A8D59A
:10288000240135014201530197CF2D2D2B013C012D
:102890002430C1F769DED82E811509F453CFB40175
:1028A000C5016D5F7F4F8F4F9F4F5EDE811509F42D
:1028B00049CF94E0890E911CA11CB11C2401350163
:1028C000282F2150330B4FEF429FC001439F900DA3
:1028D00011242D2D2150330B820F931F009791F25D
:1028E0000197EFE9FFE03197F1F700C00000F6CF64
:1028F0002091D6022272FC01E052F847EB30F1053C
:1029000008F00AC3E35FF94D0C9443250E942307A6
:1029100019CF211579F10E946B0714CF211579F198
:102920000E948A070FCF211579F10E949F070ACFD5
:10293000211579F10E94B70705CF211579F10E9481
:10294000CD0700CF2091D6022272FC01E054F84757
:10295000ED30F10530F5E85EF94D0C9443250E9409
:102960002D0781E00E941907EDCE0E943A07F9CFAA
:10297000211589F20E946107E5CE211589F20E9496
:102980008107E0CE211589F20E949307DBCE211545
:1029900089F20E94AB07D6CE211589F20E94C307A7
:1029A000D1CE87372CE79207D9F088372CE79207EA
:1029B000D9F0AC01405E524540325105C8F43111A6
:1029C0002EC08F7101E001C0000F8A95EAF7602FD9
:1029D00083E090E00E94D025802F0E948B03B2CE2E
:1029E00081E00E949A03A0C282E03115D1F39AC21D
:1029F0003115A9F08A352CE7920709F482C008F056
:102A00005AC081302CE7920709F479C083302CE753
:102A1000920709F46EC081159C4709F45DC0F70167
:102A2000858100811181811509F46FC0C8011BDD0A
:102A3000D82E682FC8010E94FA03B8018D2DE9DC59
:102A40000E949305182F992EF701B580A680A294B5
:102A50008FE0A8228091DB02877001F1DB2CB1149A
:102A6000F1F0892F807F803461F0812F805E883083
:102A7000A8F0892F807E803221F4123078F0A114E2
:102A800069F08091220382FF09C082E00E947404F1
:102A90008091DB028770DD24D3948111D12CE92D44
:102AA000E295EF70892D803C08F08CC0F0E0EB5D82
:102AB000F94D0C9443258B352CE7920721F18C3589
:102AC0009C4709F0ACCF80912203002482FF03943D
:102AD000802D0E94090CA3CF0E94260D8FEF94E356
:102AE0002CE0815090402040E1F700C000000E949F
:102AF000860B6FEF7FEF80E090E00E94EA250E9456
:102B0000440D81E0E6CF80E0E4CFC8010E941404C8
:102B1000D82E93CF092D0F70803110F00295007FD1
:102B2000B114B9F0011569F0812F805E883010F082
:102B3000111109C08091D602802B8093D6020E9489
:102B4000D90C812F3EC08091DA02802B8093DA026B
:102B5000F6CF812FDADA0115A9F1812F805E883056
:102B600010F0111104C0802F0E948E0406C0009541
:102B70008091DA0280238093DA020E94D90C22C06D
:102B8000092D0F70807F803211F00295007F113087
:102B900040F009F47DC0B11409F487C0A11499F183
:102BA000D0CF8091220382FD2AC0B11419F1011502
:102BB00039F08091D602802B8093D6020E94D90CE6
:102BC00080E037DAD11409F4CEC08091DB0280FDB9
:102BD000CAC0F70115828695869586950E94910355
:102BE000C7017DDD8091DB028695869586950E94E2
:102BF0009A03B9C080E089DA011521F3B4CFB1148A
:102C000059F1A11003C0802FCDDADCCF8A2D81309D
:102C100089F48091D502182F8023081799F20E9419
:102C2000FA088093DE029093DF02812F802B80933D
:102C3000D502C8CF853031F6802FB4DA802F0E94BC
:102C400019098091D702902F9823091709F4BACF58
:102C5000802B8093D702B6CFA11010C0802FABDAA3
:102C6000802F0E9419098091D702902F982309F490
:102C7000A9CF009508230093D702A4CF8A2D8130D5
:102C800009F0A0CF8091D602802309F49BCFE6CF34
:102C90008A2DB11421F0863008F094CFB4CF85305E
:102CA00008F090CF802F87DA8DCFA114D9F3193394
:102CB00049F48FEF97EE23E0815090402040E1F7F8
:102CC00000C00000812F21DA7DCF86958695837024
:102CD000813060F009F076CF812F992D9370B1107B
:102CE00002C080E090E00E94D0086CCF812F992D27
:102CF0009370B11002C080E090E00E94A90862CFFA
:102D00006B2D812F0E9452095DCF8370D9F5B110D0
:102D100028C0812F829586958770880F880F412F54
:102D20004F70082E01C0440F0A94EAF7212F20713A
:102D300014FF06C02FE001C0220F8A95EAF7209504
:102D4000892D869586958370982F823099F08330EF
:102D5000B1F08091D802913051F0242B82230E944F
:102D60008B030E949A0860E0C701ABDBFACC842B8E
:102D7000822BF5CF242B8091D8028227F0CF822F8F
:102D8000842BEDCFB11459F190FEEBCF812F8295BA
:102D900086958770880F880F412F4F70082E01C0CD
:102DA000440F0A94EAF7212F207114FF06C02FE088
:102DB00001C0220F8A95EAF72095892D8695869580
:102DC0008370982F823089F08330A1F08091D902EE
:102DD000913041F0242B82230E948E03C2CF823097
:102DE000A8F6BFCF842B822BF7CF242B8091D9025A
:102DF0008227F2CF822F842BEFCF8F70082FB11450
:102E000029F00E949103812FCDD9ABCF812FD3D947
:102E1000802F0E949A03A5CF123F79F168F4103FEA
:102E2000C1F0113F89F0B11409F466C0A11409F48E
:102E300060C0812FFED895CF133F29F1143F99F739
:102E40008091220382FD2CC0892D8F71B11409F36A
:102E500017C08A2DB11479F0853008F082CF892D02
:102E60008F71282F81E001C0880F2A95EAF7909191
:102E7000D9028927B1CF8630F0CF8F71B110C9CF79
:102E80000E9491036ECF80E0B11409F4A5CF892D83
:102E90008F71982F81E001C0880F9A95EAF79CCF37
:102EA000B114C1F08091DB028770843049F4109234
:102EB000DB021092DC021092DD02892D8F71A9CF06
:102EC0008A2D63E0853008F04CCF892D8F710E94E8
:102ED000060947CF8A2D853040F01092DB02109210
:102EE000DC021092DD0264E0F0CF81E00E94740405
:102EF00038CF892D8F71C4CFA114F9F2193349F459
:102F00008FEF97EE23E0815090402040E1F700C022
:102F10000000812FFAD825CF87372CE7920709F0D8
:102F200044CD81E00E94910343E062E081E00E9491
:102F30002D0408CC80912003803170F480911F0310
:102F4000811551F0E091E1022091E00230911B03E4
:102F500040911A032E1301C00895BF0187E0E89F36
:102F6000F0011124DF01AE51BD4F14968C911497DE
:102F7000811551F111968C911197831325C08C9175
:102F8000841322C015968C91159781111DC012963D
:102F90008D919D91A0911C03B0911D038A1B9B0BE9
:102FA000883C910588F4809120038F708061809324
:102FB0002003E851FD4F80818F70806180838AE11A
:102FC00093E08DDB0C946A046F5F7F4FFB01E77029
:102FD000C1CFADE0B0E0EFEEF7E10C9455258C01E8
:102FE00086E0F801DE01189601900D928A95E1F7CE
:102FF000F801F58084819AE1892E93E0992E7090F2
:103000001E03711016C0811589F0F11409F40AC16C
:10301000C8017FDA811509F405C187E0F801AAE14A
:10302000B3E001900D928A95E1F784DFFF24F394D9
:1030300054C0D080A280B380C0901F0320911C0395
:1030400030911D03A501421B530BC11409F4BBC0F1
:10305000483C510508F075C0811541F380911B0370
:103060009180E09020039E2D903108F056C0981278
:1030700014C080911A038D1110C0F11048C08E2D1C
:103080008F708061809320038AE193E028DB809138
:103090002003F8018683F12C20C0F11038C040E0F5
:1030A000692D8D2D0E944B0440E0692D8D2D0E94CD
:1030B0004B04F82E8111EFCF888599851FDA292FCF
:1030C00022952F70903470F49F70223098F09115F3
:1030D000A9F0F8019681903188F48F2D2D96EDE0BE
:1030E0000C9471252A5F2F70223060F0C801F7DA46
:1030F000FC2CF3CF911511F0811579F3805E8830A7
:1031000060F3F4CF803F48F3815F8330F9CF809143
:103110002003816080932003BECF981237C0809136
:103120001A038D1133C0F11031C0E682C801D7DA1D
:1031300087E0F801AAE1B3E001900D928A95E1F7EA
:1031400075CFE09020039E2D903148F48AE193E002
:10315000C6DAF40187E011928A95E9F79CCF8115D0
:1031600009F464CF90911B03818198130FC0809163
:103170001A038D110BC0F11009C0E682C801AFDA45
:10318000F40187E011928A95E9F750CFC801C1D9BF
:10319000811509F447C0F11409F444C08E2D803222
:1031A00008F43BCF80911A0390911B0389839A8383
:1031B000AB82BC827D821E82809120038F83CE01F0
:1031C00001968DDA2ACF483C510508F0C2CF81150F
:1031D00009F42CCFF11431F190911B0381819813E4
:1031E00018C080911A038D1114C08091200380FDB6
:1031F0009FCF803108F49CCF8683807F803F09F485
:1032000095CF8681982F907F905F8F70892B8683D2
:103210008DCFC8017ED9811100CF809120038160BC
:1032200080932003C8015BDA01CFABE1B0E0EBE1B2
:10323000F9E10C945E254E8B5F8B688F798F8A8FB6
:10324000192F9B8F91111092DA021D8A86E0FE01E0
:103250007696DE011F9601900D928A95E1F70A8D10
:103260008091220382FF1FC00E94FA082091DC0295
:103270003091DD02821B930B8838934138F08091A6
:10328000DB0282FD03C082E00E9474040E94FA08FF
:103290002091DE023091DF02821B930B883893412C
:1032A00010F00E949604011551F00B8B1C8B61E00D
:1032B000CE010F9606D961E0CE010F9602D90B8B95
:1032C0001C8B87E0FE013F96DE01189601900D925F
:1032D0008A95E1F7CE0108967CDE811128C0209105
:1032E000E0023091E10287E0AE01485F5F4FFA01F2
:1032F00047505109DA0101900D928A95E1F78C85CA
:103300008115A9F0822F90E08395877090E0AC0141
:1033100034171506B1F40E94260D1092E0021092A7
:10332000E102EAE1F3E087E011928A95E9F7809102
:10333000E1029091E002891317C06B96E4E00C94CF
:103340007A2597E0929FD0011124AE51BD4F9E0186
:103350002F5F3F4FF90101900D929A95E1F740934D
:10336000E0020E946A04E3CF27E0829FC00111249B
:103370008E519D4F2EDE811501F38091E1029091D7
:10338000E202019687708093E102D1CFA6E0B0E01F
:10339000ECECF9E10C945E250E94FA088C01809116
:1033A000B7029091B8028017910771F019821A82C2
:1033B0000E94FA08BC0149815A8180E090E035DF23
:1033C0000093B7021093B8022696E4E00C947A2595
:1033D000A6E0B0E0EEEEF9E10C945E258C0180935E
:1033E000B3021093B4021032B0F4C801805E9109A8
:1033F000089728F061EE70E10115110511F462EDF6
:1034000070E1C8010E945C03802F0E94191026966B
:10341000E4E00C947A2580EF89838A830E94FA087D
:103420008160BC0149815A8181E091E0FEDEEFCFED
:10343000A6E0B0E0EEE1FAE10C945E258C01809309
:10344000B3021093B4021032B0F4802F0E948510A2
:10345000C801805E9109089728F06AEE70E10115B5
:10346000110511F46BED70E1C8010E945C03269612
:10347000E4E00C947A2580EF89838A830E94FA081D
:103480008160BC0149815A8181E090E0CEDEEFCFBE
:1034900048E050E067E170E08DE992E00E94C125CC
:1034A00010925502089585E080939D028091160147
:1034B00090911701A091180180939E0290939F0212
:1034C000A093A0028FE78093A1028FEF8093A202C6
:1034D000DFCFA0E0B0E0EFE6FAE10C945A250E94BD
:1034E000090AAB01BC0140934D0250934E028093F8
:1034F0004F027093500280919D02182F137019F0A3
:10350000182F1695169590910501923009F4FCC07C
:1035100080F4911116C01092000140935102509313
:103520005202609353027093540281E0809305012C
:1035300003C0933009F4F1C0CDB7DEB7E8E00C94D6
:1035400076259091040119132AC0837020910301FC
:1035500030E091E08217130609F490E090930201A5
:103560008091A20290910101981739F08093010196
:1035700040E060E080E00E942107113091F01230BD
:1035800009F481C0111109C080910201811529F04F
:1035900040E060E080E00E94210780E020C091E0F0
:1035A000DDCF80910001C82FCC0FC80F0C2F0D5F0D
:1035B000F02E0D3010F02CE0F22E60919E027091F2
:1035C0009F028091A0020E949706E62ED72EC82E59
:1035D000D0E0CF1508F447C081E00C30F0F69091B0
:1035E0000001292F2F5F2093000181117BC082E011
:1035F0008093050180910201811174C0111509F4B5
:103600008AC0C92FCC0FC90F1C2F1D5F1D3008F0B9
:103610001CE09091D8028091D902892B0E947903F5
:10362000833009F467C008F051C0813009F45DC0EF
:103630006091190170911A01823009F450C060E064
:1036400070E080E00E949706062FF72EE82ED0E06B
:10365000C11708F071CF2E2D4F2D602FCE010E9483
:103660001F072196F5CFFE01E45AFE4F80A59091E9
:103670000101892331F02C2D4D2D6E2DCE010E949C
:103680001F072196A6CF80910001C82FCC0FC80F2D
:103690000C2F0D5FF02E0D3010F09CE0F92ED0E0D5
:1036A000CF1508F099CFFE01EE0FFF1FEC0FFD1FA5
:1036B000E758FD4F6081718182810E949706472FF4
:1036C000282FCE010E941F072196EACF8430B9F03F
:1036D00060911C0170911D01853009F0B0CF80917F
:1036E000A002B0CF11118DCF27CF60911F01709133
:1036F0002001F5CF6091220170912301F0CF6091FC
:10370000250170912601EBCF109304018370809303
:1037100003010E94600B83E009CF80915502811163
:10372000B7DEE0905102F0905202009153021091E6
:1037300054020E94090ADC01CB018E199F09A00BDB
:10374000B10B4097A105B10508F4F6CE1092050122
:10375000F3CEA0E1B0E0EFEAFBE10C945225FE01CC
:103760003196DF0180E11D928A95E9F70CE210E0C5
:1037700099E4A92E91E0B92E612C712C2501539466
:1037800041949E2E8F2E6201730181E148165104EF
:10379000610471041CF080E1C82ED12CA601B50192
:1037A000892D982D0E94C125AC0CBD1C0D2C000C40
:1037B00000084C185D08600870080150104019F7A7
:1037C0006096E0E10C946E256FEF85E290E00E9438
:1037D000D0256FEF86E290E00E94D0256FEF87E260
:1037E00090E00E94D02560E088E290E00E94D02521
:1037F0000E94760CAEDF60E485E290E00E94D02566
:1038000061E286E290E00E94D02563E287E290E0E8
:103810000C94D025CDB7DEB7EA970FB6F894DEBF8B
:103820000FBECDBF85B7806885BF85B7806885BF6F
:1038300084B7877F84BF0FB6F894A8958091600005
:10384000886180936000109260000FBE80E890E075
:103850000FB6F89480936100909361000FBE81E0F1
:10386000809309018FE796E080930402909305020C
:103870000E94420B0E94F30A8091E20084608093D0
:10388000E20078948091A702811599F08091E90077
:103890001091EC008F7010FB112717F9182B109264
:1038A000E9008091E80083FD0E94590D1F7010937C
:1038B000E90082E084BD93E095BD9AEF97BD8093C7
:1038C0006E000E94C112811101C07EDFE6E6F2E0C7
:1038D00089E011928A95E9F784E08093650210E00F
:1038E00060E0812F0E94E50761E0812F0E94E507DB
:1038F0001F5F1430A9F78FE891E00197F1F700C03E
:10390000000010E080916502181708F488C020E9D3
:10391000E22E21E0F22E04E911E0F70181917F010E
:103920008F3F11F00E9481060E151F05B1F794E933
:10393000E92E91E0F92E08E911E0F70181917F016C
:103940008F3F11F00E9481060E151F05B1F7EBEABB
:10395000F2E084E011928A95E9F7EFEAF2E084E080
:1039600011928A95E9F780E090E00E94BC25833EA1
:103970009E4F21F40E94C11281112AC063EE7EEF96
:1039800080E090E00E94EA2560E082E090E00E9402
:10399000D02581E08093D80261E083E090E00E942E
:1039A000D02560E074E184E090E00E94EA257BDDB0
:1039B0000BDF60E070E0AB018FE090E00E94E22559
:1039C00060E070E0AB0183E190E00E94E22560DD01
:1039D00082E090E00E94B4258093580284E090E059
:1039E0000E94BC2580932103909322030E94F4102F
:1039F0008FEF96E721E0815090402040E1F700C032
:103A000000000E94F4108091AB0280FF1AC06FEF9B
:103A10007FEF80E090E00E94EA250E94860B60E044
:103A2000812F0E940508082F61E0812F0E94050860
:103A3000E12FF0E0EF59FD4F880F802B80831F5F4F
:103A400061CF83E090E00E94B4250E948B030E9426
:103A5000220881E08093550248E050E067E170E081
:103A60008DE992E00E94A4251092550280919D025A
:103A7000843008F418DD8AE091E08093B9029093D5
:103A8000BA021E018FEF281A380A8091A7028530EA
:103A900049F48091A702853009F44AC00E94260D9E
:103AA0000E949A080E94F41009E512E08BEAE82EC1
:103AB00082E0F82EF701D8019D91808122E0AD359A
:103AC000B20709F46BC031969817B1F3D12CF70106
:103AD000C1907F01F80191908F019C1411F19C24F9
:103AE000AA24A394B12C892D8A21A1F0B982DA826B
:103AF0000E94FA088B839C8381E08D8391E08C2D5A
:103B00008A2109F490E09E8349815A816B817C81EE
:103B10008D818BDBB394AA0C8B2D843021F7F801B7
:103B2000C292D3948D2D843091F60E94090A39C037
:103B30008091A702843029F1CCDC1092560288E1F2
:103B400090E020E40FB6F894A895809360000FBE33
:103B50002093600083B7817F846083BF83B78160D7
:103B600083BF7894889583B78E7F83BF0FB6F89410
:103B7000A895809160008861809360001092600039
:103B80000FBE0E94F410EBEAF2E080818111C1C502
:103B9000319682E0EF3AF807C1F77BCF981396CFC2
:103BA000F5DB97DC80916F02811551F080916802FE
:103BB00010926F028093690280916602809367027F
:103BC00010E072C000916902B090680261E0812F3C
:103BD0000E940508F82E60E0812F0E940508FF0C66
:103BE000F82A412F50E0DA01AF59BD4FEC918E2FEA
:103BF0008370F81609F457C0EE0FEE0FEF29EC931F
:103C0000EF70F0E0E85BFE4FCA01835A9D4F6C01F4
:103C10002081FC018081280F322F330F330B485A4B
:103C20005E4FFA018081E82EF12C28173105BCF097
:103C3000EB2DF0E0CF01019665E070E0FDD6AC0120
:103C40000817190661F0EA59FD4F912F9F77948369
:103C500040936802809166028F5F80936602882796
:103C600099278E199F0982179307C4F0E091680283
:103C7000F0E0CF01019665E070E0DED6AC010817F8
:103C8000190661F0EA59FD4F912F90689483409393
:103C90006802809166028F5F80936602C901B70156
:103CA000DFD6F60180831F5F80916502181708F444
:103CB00089CF90E0ACEFEA2EBDEFDB2E8091690258
:103CC00020916802281709F43EC090E0FC01E659F3
:103CD000FD4FF0800F2D0F77019665E070E0ACD6B8
:103CE00080936902809167028F5F80936702F7FC7F
:103CF00006C009A7EAA60E94FA0813E005C009A7B2
:103D0000DAA60E94FA0812E0BC018BA79CA71DA7A7
:103D100081E08EA749A55AA5812F91E086DA0FA7E9
:103D2000F7FE0FC0D8AA0E94FA08BC0189AB9AAB73
:103D30001BAB1CAA4FA558A9812F90E076DA91E021
:103D4000BDCFE8AAF0CF91110E94090A86E0EFECFE
:103D5000F2E0D10101900D928A95E1F7B090D00286
:103D6000E090D102D090D202C090D302F090D40261
:103D70001092D1021092D2021092D3021092D40269
:103D80008E2D8D2909F441C00091720210917302A9
:103D90000E94FA08801B910B9C019091CD02911515
:103DA00009F4B2C42531310580F19F3F19F09F5FBE
:103DB0009093CD02E11459F00E94550891E01E1431
:103DC0000CF09FEF899F802D11248093D102D11494
:103DD00059F00E94550891E01D140CF09FEF899F47
:103DE000802D11248093D2028091D102811569F037
:103DF0001091D202111549F00E9447088093D10218
:103E0000812F0E9447088093D2028F2D8C2909F4BC
:103E100041C000917002109171020E94FA08801B4B
:103E2000910B9C019091CC02911509F468C4213545
:103E3000310580F19F3F19F09F5F9093CC02C11430
:103E400059F00E94750891E01C140CF09FEF899FB7
:103E5000802D11248093D302F11459F00E9475082B
:103E600091E01F140CF09FEF899F802D1124809307
:103E7000D4028091D302811569F01091D4021115FA
:103E800049F00E9447088093D302812F0E9447087F
:103E90008093D4028091D0028B1119C08091D102FD
:103EA000811511F08E1113C02091D202211511F04D
:103EB0002D110DC09091D402911511F09F1107C0E2
:103EC0003091D302311103C0822B892B11F00E9453
:103ED0002A0986E0F101AFECB2E001900D928A95DB
:103EE000E1F70E949A0890917402891721F080935B
:103EF00074020E94090A8091A702843009F0C5CD9E
:103F000083E08093E9008091E80082FFBECD80913C
:103F1000E80090E085FF09C00E94C20AF0E2EF2E9F
:103F2000F12C8101811569F191E08091E8008B7796
:103F30008093E800911509F4A8CD0091B502109185
:103F4000B602E9810115110551F1EE3F09F049C0B2
:103F50008A81833020F08550833008F042C0EA81A6
:103F6000EE3008F03EC0F0E0EF5CF94D8CC580917A
:103F7000F100F801808381E0E81AF108A9F20F5FEF
:103F80001F4F8091E80085FDF2CF8091E8008B778C
:103F90008093E8000E94C20A811599F3C5CFE431ED
:103FA00048F4E11549F0E150E33130F4F0E0E15C30
:103FB000F94D69C5EE3F99F28FEF898312C01A82DD
:103FC00089E08B830EC08A81823079F08330A9F03A
:103FD000813091F70E94090A5CD56B837C838D83C5
:103FE0009E83C1010E94D70750CD88E290E0BCD5E6
:103FF0001B821C821D828E83F4CF8091A50290913A
:10400000A602892B71F38091AB028B838091AC0265
:104010008C838091AD028D838091AE02ECCF8A813A
:10402000823051F66B817C818D819E8132D588E210
:1040300090E0B6D5D6CF4C816B818A810E94AB11BE
:104040009827892798278D839E83CBCF2D813E810A
:104050003227232732274C816B818A810E941F0CD3
:10406000C0CF0E94760CBDCF8A81813489F1823421
:1040700009F0B7CF8D8190E09C01220F331F280FEC
:10408000391F2E3131050CF0ACCF4B815C81D10151
:10409000FA01EE0FFF1FE40FF51FE758FD4F20E078
:1040A00030E02817390708F09CCFBA01620F731F60
:1040B0006C30710508F095CF15966D9160836D9108
:1040C00061836C91149762832F5F3F4F3396E9CFE2
:1040D0000B811C810115110581F40E943A078D8125
:1040E0008093A10280E00E9419078E8120E048851C
:1040F0006F8190E00E94740774CF0E942D0728E31F
:1041000036E044E456E0F901329685919591F90143
:10411000659175910617170731F02C5F3F4F4217D5
:10412000530789F780E060E00E944607D8CF8A8174
:10413000823409F468C088F5803409F45EC08134A3
:1041400009F04FCF20919D02822F8370A9F0269510
:10415000269588E396E0FC01329645915591FC0145
:1041600065917591E62F372F2417150639F00496BF
:1041700036E08434930779F7E0E030E0EB833C836A
:104180008091A1028D8380919E028E8380919F02F7
:104190008F838091A002888724CF833409F456C08E
:1041A000843409F01ECF8B81482F50E08C3008F00A
:1041B00018CFFA01EE0FFF1FE459FE4F80818B8369
:1041C000FA01EE0FFF1FE45AFE4F81898C83FA013A
:1041D000E45AFE4F80A58D838FEF8F838E836CE52D
:1041E00071E020E030E0FB0180E090E0A081A417C6
:1041F000150681F52E838F83F4CE81E08B831C829C
:104200008FEF8D83EECE0B811C814EE150E06FEF7E
:1042100070E0CE01039691D488E396E09E012D5F75
:104220003F4FD9012EE1FC01459155910417150727
:1042300028F4223048F04D935D932250049636E0E6
:104240008434930781F7CDCE20E0F8CF8CE08B83C8
:104250001C82C7CE319601968430910539F62F5FC6
:104260003F4F6C5F7F4F2430310509F0BCCFB9CE92
:104270000FD9B7CE86E08A83B4CE82E08A8387EBFB
:10428000A0CE0C810D3108F0ACCE8A809B809824A2
:1042900089249824A12CB12C7101020D132D111D1C
:1042A0000E151F0509F49DCE87EB881682E098064F
:1042B000A104B10478F4C401875B9E4F55D4F70183
:1042C00084838FEFE81AF80A8FEF881A980AA80AF1
:1042D000B80AE6CF80E0F3CF8091A5029091A602C4
:1042E000892B09F47ECE7C80872D8D3108F079CE24
:1042F000CA80DB80DC24CD24DC24E12CF12C81017C
:104300004701540187149104A104B10408F069CE57
:1043100087EBC81682E0D806E104F10430F4F80116
:104320006481C601875B9E4F3BD48FEF881A980A41
:10433000A80AB80A8FEFC81AD80AE80AF80A0F5F65
:104340001F4FE0CF06DA4DCE7C80872D8D3108F0EF
:1043500048CECA80DB80DC24CD24DC24E12CF12C87
:10436000470154018E010B5F1F4F87149104A10474
:10437000B10408F036CE80ECC816D104E104F10493
:1043800088F4C6018996F0D3F80181938F018FEFED
:10439000881A980AA80AB80A8FEFC81AD80AE80A31
:1043A000F80AE3CF80E0F0CF9C80092D10E00D31BA
:1043B00008F017CE8A819B819827892798272C019E
:1043C000612C712C803C910508F00BCEB30140ECC0
:1043D00050E04419550966097709491551056105E9
:1043E000710508F4FECD2091A5023091A602232B81
:1043F000E1F59C01275D3F4F29AF3AAF80FBEE24EA
:10440000E0F8F12C80FF0AC08896AED32D81382FBA
:10441000C90181159C4711F48FEF8D83C201D3012F
:10442000890D911DA11DB11D80FF18C0580181E0AB
:10443000A81AB1086E0185E0C80ED11CCA0CDB1C9D
:1044400089AD9AAD800F911F8FD3F6012081922FF5
:1044500081159C4711F48FEF80838501F101EE0DEA
:10446000FF1D2FEFE016F10628F08101E12CF12C61
:10447000670124C044818581942F81159C4711F4E4
:104480002483258382E0E80EF11C3296EBCF80EC8A
:10449000481651046104710428F4F8016481C201D2
:1044A00089967ED38FEFC81AD80AE80AF80A8FEFE8
:1044B000481A580A680A780A0F5F1F4FC914D104B6
:1044C000E104F10420F38DCD8091A5029091A60224
:1044D000892B09F486CDC1010E94D7078FEF91EE99
:1044E00024E0815090402040E1F700C0000095CAD0
:1044F00088E0E8E2F1E0DE01919601900D928A9564
:10450000E1F7FE0132968FE111928A95E9F786E094
:10451000898388E0FE01B196DE01159601900D9227
:104520008A95E1F781E08D875CCD80E2898381E027
:104530008A831B828DCE8B819C81A92FAA0FAA0B07
:10454000BA2F25E0880F991FAA1FBB1F2A95D1F704
:10455000803E2FEF9207A207B20708F042CD8032CB
:1045600021E09207A105B10508F03BCDAC01BD01EA
:10457000405E5F4F6F4F7F4F413221E05207610530
:10458000710510F040E251E0481B590BBC01685E18
:104590007A4FC101BCD225CD1B810C8140E0602F38
:1045A000812F0E94D51198278927982789839A837C
:1045B00041E0602F812F0E94D511982789279827E5
:1045C0008B839C830ECD2E813F812C37310569F082
:1045D00032272327322741E08D81811101C040E03D
:1045E0006C818B810E94450CFCCC8091A50290913E
:1045F000A60220E03CE7892B71F720E030E0EBCF0A
:104600004AE150E06FEF70E0CE01079696D28091BC
:10461000A50289830A8383E08B831C828D83EBCC84
:1046200081E08093B5021092B60282E38093770214
:10463000109278020E94FA08809375029093760295
:10464000D0CC01151105C9F1D090AE02E0907502F1
:10465000F09076020E94FA088E199F09853691051E
:1046600098F1D3FA882780F98DAB1EAA8D2D817021
:104670008FAB18AE8DA99EA92FA938AD82239323A5
:10468000892B11F10E94FA088093750290937602AB
:1046900080917702909178020197809377029093AE
:1046A0007802892B51F41092B5021092B60281E083
:1046B0008093A5021092A60200E08091A502898352
:1046C0000A83809177027DCC82E3809377021092F7
:1046D0007802F3CF1092A5021092A60282CC40E29B
:1046E00050E06FEF70E0C10128D27BCC8B8181114B
:1046F00078CCF10180E211928A95E9F772CC2B30E7
:10470000310508F099CBC6CB2B30310508F04FCBE3
:104710007CCB80915702811509F4BBC980E189BD2A
:1047200082E189BD09B400FEFDCF8091D8008F7D64
:104730008093D8008091E00082608093E0008091B7
:10474000E00081FDFCCF0E94260DA3C91F921FB679
:104750001F9211248F939F93AF93BF938091560222
:10476000811113C08091210290912202A091230215
:10477000B09124024196A11DB11D80932102909316
:104780002202A0932302B0932402BF91AF919F9184
:104790008F911F901FBE1F90189578941F921FB67F
:1047A0001F9211248F939F93AF93BF938091210207
:1047B00090912202A0912302B09124020196A11DA2
:1047C000B11D8093210290932202A0932302B09303
:1047D0002402BF91AF919F918F911F901FBE1F9098
:1047E00018951F920F920FB60F9211242F933F939B
:1047F0004F935F936F937F938F939F93AF93BF93E9
:10480000EF93FF938091E10082FF09C08091E20065
:1048100082FF05C08091E1008B7F8093E100809151
:10482000DA0080FF24C08091D80080FF20C08091F2
:10483000DA008E7F8093DA008091D90080FFA9C0D2
:1048400080E189BD82E189BD09B400FEFDCF81E030
:104850008093A70280911002811109C00E94420B2F
:104860000E94F30A8091E20084608093E2008091CC
:10487000E10080FF1AC08091E20080FF16C08091A5
:10488000E2008E7F8093E2008091E200806180935D
:10489000E2008091D80080628093D80019BC85E046
:1048A0008093A70283E0809309018091E10084FF57
:1048B0002FC08091E20084FF2BC080E189BD82E19E
:1048C00089BD09B400FEFDCF8091D8008F7D809313
:1048D000D8008091E1008F7E8093E1008091E2001A
:1048E0008F7E8093E2008091E20081608093E200FD
:1048F00080910F02811509F452C084E08093A702D1
:104900008091A702843009F052C082E080930901AF
:104910008091E10083FF2CC08091E20083FF28C0DA
:104920008091E100877F8093E10082E08093A7027D
:1049300010920F028091E1008E7F8093E1008091C0
:10494000E2008E7F8093E2008091E200806180939C
:10495000E20042E060E080E00E94730A8091F00093
:1049600088608093F00081E08093090180930801C2
:10497000FF91EF91BF91AF919F918F917F916F9137
:104980005F914F913F912F910F900FBE0F901F900D
:10499000189519BC1092A7021092100268CF80914E
:1049A000E30087FF02C083E0A9CF81E0A7CF81E0C9
:1049B000ADCF1F920F920FB60F9211241F932F931A
:1049C0003F934F935F936F937F938F939F93AF9397
:1049D000BF93CF93DF93EF93FF93E9EEF0E08081F5
:1049E0001091EC008F7010FB112717F9182B108213
:1049F000C0EFD0E08881877F888378940E94590D2A
:104A0000E9EEF0E010828881886088831F7010834F
:104A1000FF91EF91DF91CF91BF91AF919F918F91D6
:104A20007F916F915F914F913F912F911F910F90C7
:104A30000FBE0F901F901895AA1BBB1B51E107C01A
:104A4000AA1FBB1FA617B70710F0A61BB70B881F1E
:104A5000991F5A95A9F780959095BC01CD010895AD
:104A600097FB072E16F4009406D077FD08D0E4DFFC
:104A700007FC05D03EF4909581959F4F0895709561
:104A800061957F4F0895EE0FFF1F0590F491E02D83
:104A90000994692796276927782787277827089513
:104AA0002F923F924F925F926F927F928F929F923E
:104AB000AF92BF92CF92DF92EF92FF920F931F932C
:104AC000CF93DF93CDB7DEB7CA1BDB0B0FB6F894DD
:104AD000DEBF0FBECDBF09942A88398848885F841D
:104AE0006E847D848C849B84AA84B984C884DF808E
:104AF000EE80FD800C811B81AA81B981CE0FD11D72
:104B00000FB6F894DEBF0FBECDBFED010895FB01D7
:104B1000DC0102C005900D9241505040D8F7089535
:104B2000FB01DC0104C08D910190801921F44150FA
:104B30005040C8F7881B990B0895DC0101C06D93A4
:104B400041505040E0F70895DC01CB01FC01F99998
:104B5000FECF06C0F2BDE1BDF89A319600B40D92C9
:104B600041505040B8F70895F999FECF92BD81BDEC
:104B7000F89A992780B50895A8E1B0E042E050E0A6
:104B8000E5CFDC01A40FB51F4150504040F0CB01F0
:104B9000840F951F2E9105D041505040D8F70895AD
:104BA000262FF999FECF92BD81BDF89A019700B4E6
:104BB000021639F01FBA20BD0FB6F894FA9AF99A86
:104BC0000FBE08950396272FECDFEADF252FE9DFDC
:104BD000242FE7CF0196272FE4DFE2CFF894FFCF11
:104BE0005E09630965096A097A097A097A097A0905
:104BF0007A097A097A097A096C09700973097809BE
:104C000087098D099109370E5D0E630E5D0E630EE7
:104C1000B10ED30E630ED70FE40F86148914B814A7
:104C20008E14BD149314C2149814C7149D14CC147C
:104C3000AF14B51486148914B8148E14BD149314CB
:104C4000C2149814C7149D14CC148A158A15C01563
:104C5000C01565168016E215E2158516FD160C17AF
:104C60000C17782295229B22CC22E32200231023CA
:104C700021236A236F23F11FF11FF11F7623DF1F0A
:104C8000E31F0F201B2026203120342097203821BD
:104C9000DC1F64223A213D2141216C21A2213A21CD
:044CA000A421D42156
:104CA40000FF00FFFF0300000100F708EC0B150AEA
:104CB400FF0B040CE40B00FFFF15FFFFBFFFFF0019
:104CC400FFFF55FFFFAAFFFF26450A2A191D5403BB
:104CD4000044227B49012701AC009F01B801D8019F
:104CE4009532F5C69333F6F000FF0100010000FF92
:104CF400FF0000010001FF0002040404030201009C
:104D0400040506070B0A0908FFFFFFFF0300020062
:104D1400010000000001010102010301030202027B
:104D2400010200020404040404040404040404044A
:104D340094973435676696F4E200E900EA00B5001A
:104D4400B600B700CD008301CC008A019201940122
:104D54002102230224022502260227022A02B3008A
:104D6400B4006F0070009F01CB019F02A002E2001B
:104D7400E900EA00B500B600B700CD008301CC001D
:104D84008A019201940121022302240225022602AF
:104D940027022A02B300B4006F0070009F01CB0108
:044DA4009F02A002C8
:00000001FF
